:0200000470107A
:10040000000020341D0A1070070A1070090A1070CD
:100410000B0A10700D0A10700F0A1070110A10707C
:10042000000000000000000000000000130A10702F
:10043000150A107000000000170A1070190A1070D9
:10044000790A107000000000790A1070790A1070A3
:10045000790A1070790A1070790A1070790A107090
:10046000790A107000000000790A1070790A107083
:10047000790A1070790A1070790A10700000000073
:10048000790A107000000000790A1070790A107063
:10049000790A1070790A1070790A1070790A107050
:1004A000790A1070790A1070790A1070790A107040
:1004B000790A1070790A1070790A1070790A107030
:1004C000790A1070790A1070790A1070790A107020
:1004D0000000000000000000790A1070790A107016
:1004E000790A107000000000000000000000000009
:1004F0000000000000000000790A1070790A1070F6
:10050000790A1070000000000000000000000000E8
:10051000790A1070790A1070790A1070790A1070CF
:10052000790A1070790A1070790A1070790A1070BF
:10053000790A1070790A1070790A1070790A1070AF
:10054000790A1070790A1070790A1070790A10709F
:1007400000000000790A1070790A107010B5054C8D
:10075000237833B9044B13B10448AFF3008001236D
:10076000237010BD1000003400000000AC111070A8
:1007700008B5034B1BB103490348AFF3008008BD24
:100780000000000014000034AC111070044B82B063
:10079000C3F85C0AD3F85C320193019B02B0704746
:1007A00000800256BFB5814B5A6912F4003211D154
:1007B000BFF34F8FBFF36F8FC3F85022BFF34F8F3C
:1007C000BFF36F8F5A6942F400325A61BFF34F8F03
:1007D000BFF36F8F754A536913F4803328D1C2F881
:1007E0008430BFF34F8F43F6E074D2F88030C3F308
:1007F000C900C3F34E335B0100F1010E01464EF018
:1008000001E003EA040646EA8175C2F86052013944
:100810000FF007C8203B13F1200FEDD1BFF34F8F2E
:10082000536943F480335361BFF34F8FBFF36F8F2E
:1008300001244FF480650226002700F07FF900F0C4
:10084000A3FA00F07BF91422002101A800F082FC39
:100850001020FFF79BFF4FF40040FFF797FF4FF486
:100860008040FFF793FF4020FFF790FF01224FF4F5
:1008700080614F4800F0F8FB01224FF480614D4841
:1008800000F0F2FB4A4801A9CDE90154CDE9036724
:1008900000F006FB474801A9CDE90154CDE9036703
:1008A00000F0FEFA4FF40072434B2021C3F8582A9F
:1008B000D3F8583220460193019B00F0F3FB40F23D
:1008C000013229463A4800F0D4FB40F20132294671
:1008D000384800F0CEFB40F201322146374800F0A4
:1008E000C8FB40F201320421344800F0C2FB40F260
:1008F00001321021314800F0BCFB40F201322021CE
:100900002E4800F0B6FB40F2013221462C4800F0A0
:10091000B0FB40F201323146294800F0AAFB40F218
:1009200001320421264800F0A4FB40F201320821E4
:10093000234800F09EFB40F201321021204800F0D5
:1009400098FB40F2013220211D4800F092FB40F25A
:10095000013240211A4800F08CFB40F20132802124
:10096000174800F086FB00F089F800224FF4806100
:10097000104800F079FB01224FF480610C4800F030
:1009800073FB4FF4FA7000F023FA01224FF48061F8
:10099000084800F069FB00224FF48061044800F031
:1009A00063FB4FF4FA7000F013FADEE700ED00E0AD
:1009B00000100256001802560080025600380256F7
:1009C000003C0256C0B26DED81CF11B140B101289B
:1009D00009D09FEC100A9FE80F90FDEC81CF74477F
:1009E000024B1960F5E7024BFBE700BF3000003413
:1009F0002C00003408B500F0A5FBBDE8084001213B
:100A0000084600F06FBBFEE7FEE7FEE7FEE7FEE705
:100A1000FEE770477047704700F0C8B90F4880F391
:100A20000A880F48854600F03DF80E480E490F4AE7
:100A3000002302E0D458C4500433C4188C42F9D3C4
:100A40000B4A0C4C002301E013600432A242FBD39A
:100A500000F088FBFFF7A6FEFEE7000000F81F3459
:100A600000002034000000340C000034CC11107061
:100A70001000003438000034FEE7000008B5012201
:100A80004FF48061054800F0EFFABDE8084001220C
:100A90004FF48061024800F0E7BA00BF0018025628
:100AA000001002561E491F4AD1F88C3010B543F48D
:100AB0004063C1F88C30536B23F0E05343F0805314
:100AC00053630022184BC3F88022C3F88422C3F872
:100AD0008822C3F88C22C3F89022C3F89422C3F86A
:100AE00098220122114B8B60114BC3F8782AD3F85E
:100AF00078028C680F4803F5805304610069C3F8DD
:100B00007822D1F888300C4A43F47003C1F8883059
:100B1000D2F8883043F47003C2F8883010BD00BFAB
:100B200000ED00E000EF00E000E100E000041070E4
:100B3000008002560080005600ED02E06E4BF0B5DA
:100B40001A6A02F44012B2F5001F00F0B98006D80C
:100B500062B99A6C694BC2F3C112D34003E0B2F59B
:100B6000401F09D00023664A1360F0BD5B6C9F05EF
:100B700000F1A880634BF6E7D3F8C42002F040529E
:100B8000B2F1805F29D0B2F1005F35D0002A42D1A6
:100B9000D3F880100E0101F0E04000F19A80D3F804
:100BA0008440D3F88820C1F30B2524F07F44074606
:100BB000B7F1005FC2F3C266C1F30550C2F302622F
:100BC0004ED000F28180002F3AD000274A4B5B6C58
:100BD0009B0554BF4B4B4C4B38E0D3F890100D01A4
:100BE00001F0E04075D4D3F89440C1F30B25D3F85D
:100BF000982024F07F44DAE7D3F8A0100C0101F02C
:100C0000E04066D4D3F8A440C1F30B25D3F8A82064
:100C100024F07F44CBE7D3F8B0100A0101F0E040A4
:100C200057D4D3F8B440C1F30B25D3F8B82024F03F
:100C30007F44BCE702460646044605464FF000677F
:100C40002D4B996C2D4BC1F3C111CB404FB12A4AAA
:100C5000D2F8C420C2F307420132B3FBF2F382E7B9
:100C60002A4B07EE104AB8EEC76A07EE105A07EE95
:100C7000903ADFED276AB8EEC77AF8EEE77AA6EE8B
:100C8000267A67EE877A07EE100AB8EEC77AC7EEC3
:100C9000876A07EE906AB8EEE77A07EE902AF8EED8
:100CA000E77A27EE277AC6EE877AFCEEE77A17EE28
:100CB000903ACCE70023D4E7144BC8E70023C6E7FB
:100CC000124B50E7104B4EE7B7F1405FF2D1114B9A
:100CD000C7E7B0F1005FEFD009D80028AAD0002202
:100CE0004FF0006716461446154610466EE7B0F101
:100CF000405FE3D1074BAAE7008002560090D00383
:100D00000000003400093D000024F400006CDC0207
:100D1000000080330080BB006DED81CF00B5FFF790
:100D20000DFF054B5DF804EB18689FEC100A9FE877
:100D30000E90FDEC81CF74470000003438B50F4BA6
:100D400005461A780AB9012038BD4FF47A73B3FB0F
:100D5000F2F30B4A1068B0FBF3F000F08DF8044694
:100D60000028F0D10F2DEED8024629464FF0FF3073
:100D700000F052F8034B20461D60E5E70400003404
:100D8000000000340800003410B5032000F032F8F1
:100D9000FFF7D4FE0F20FFF7D1FF044618B9FFF785
:100DA00029FE204610BD0124FBE70000034A044B46
:100DB00011681B780B441360704700BF3400003487
:100DC00004000034014B1868704700BF3400003441
:100DD00038B50446FFF7F6FF0546631C1EBF044BFB
:100DE0001B78E418FFF7EEFF431BA342FAD338BD8C
:100DF0000400003407490302CA6803F4E06322F4E4
:100E0000E0621204120C134343F0BF6343F4003357
:100E1000CB60704700ED00E0154B30B5DC68C4F3E3
:100E20000224C4F10703251D042B28BF0423062D2B
:100E30004FF0FF3594BF0024033C05FA03F321EA89
:100E40000303A54022EA0502A340002843EA020367
:100E5000ACBF00F16040074A4FEA0313DBB2ABBFFF
:100E600000F5614000F00F0080F80033135430BDEE
:100E700000ED00E014ED00E00138B0F1807F0BD20E
:100E80004FF0E023F021054A586182F8231000203A
:100E9000072298611A6170470120704700ED00E059
:100EA0002DE9F04F00234FF00F0A6D4C0A6832FA1B
:100EB00003F501D1BDE8F08F012505FA03F919EA20
:100EC000020200F0B58003274E684FEA430806F09F
:100ED000030507FA08FE6F1E012F6FEA0E0ED1F808
:100EE00008C031D8876807EA0E0BCF6807FA08F701
:100EF00047EA0B078760476827EA0909C6F3001726
:100F00009F4047EA09074760C7680CFA08FC07EAF0
:100F10000E074CEA0707022DC7601AD14FEAD30C1F
:100F200000EB8C0C03F00709DCF820704FEA89090C
:100F30000AFA09FB27EA0B0B0F6907FA09F747EAD8
:100F40000B07CCF8207004E0032DDDD1BCF1010FBC
:100F5000DAD1076805FA08F507EA0E073D4316F4EB
:100F6000403F056064D023F0030707F1AC4707F565
:100F7000143703F0030C3D6E4FEACC0C0AFA0CFE5A
:100F800025EA0E0E374DA84254D005F58065A842DB
:100F900052D005F58065A84250D005F58065A8427D
:100FA0004ED005F58065A8424CD005F58065A84275
:100FB0004AD005F58065A84248D005F58065A8426D
:100FC00046D005F5C055A84244D005F58065A84235
:100FD00042D005F58065A84240D005F58065A8425D
:100FE00014BF10250B2505FA0CF545EA0E053D66E4
:100FF000D743D4F8805016F4803F0CBF3D401543D2
:10100000C4F88050D4F8845016F4003F0CBF3D4023
:101010001543C4F88450256816F4801F0CBF3D406A
:10102000154325606568B60254BF3D4015436560B1
:1010300001333BE70025D6E70125D4E70225D2E7B7
:101040000325D0E70425CEE70525CCE70625CAE72A
:101050000725C8E70825C6E70925C4E70A25C2E72A
:1010600000500256000002560AB181617047816249
:10107000704710B540F201149443036B09D10B4340
:1010800040F2022403639443436B06D10B43436352
:1010900010BDD40548BF8B43F2E7920548BF8B4390
:1010A000F5E7000011F0200F10B50D4B0DD01A6FB1
:1010B00001F0220102431A6722295A6F01D102432B
:1010C00001E022EA00025A6710BDC4431A6F01F022
:1010D000110122401A6711295A6FF0D02240F2E71D
:1010E00000480256042829D8DFE800F0030B121943
:1010F0002100134AD36B23F0807343EA0163D36367
:1011000070470F4AD36B23F0007343EA4163F6E75D
:101110000B4AD36B23F0806343EA8163EFE7084A0D
:10112000536B23F0807343EA016353637047044AAF
:10113000936B23F0807343EA01639363704700BFAE
:1011400000480256024AD36B43F48073D36370475E
:101150000048025602440346934200D1704703F808
:10116000011BF9E770B50D4B00260D4D5B1B9C1064
:10117000A64209D10B4D00F019F80B4B00265B1B62
:101180009C10A64205D170BD55F8043B0136984726
:10119000EEE755F8043B01369847F2E7C4111070AA
:1011A000C4111070C4111070C8111070F8B500BFD0
:1011B000F8BC08BC9E467047F8B500BFF8BC08BC38
:1011C0009E467047710710704D0710700090D00355
:1011D00001000000100000000000000000000000FE
:1011E0007FE97FE9FFF798BD7FE97FE9FFF7EABB79
:1011F00000000000000000000000000000000000EF
:040000057010040073
:00000001FF
