:0200000470107A
:1004000000002034391C1070E91A1070F51A1070B1
:10041000011B10700D1B1070191B1070251B107024
:10042000000000000000000000000000951C10709B
:10043000311B1070000000004D081070F50710709F
:10044000951C107000000000951C1070951C107019
:10045000951C1070951C1070951C1070951C1070D8
:10046000951C107000000000951C1070951C1070F9
:10047000951C1070951C1070951C107000000000E9
:10048000951C107000000000951C1070951C1070D9
:10049000951C1070951C1070951C1070951C107098
:1004A000951C1070951C1070951C1070951C107088
:1004B000951C1070951C1070951C1070951C107078
:1004C000951C1070951C1070951C1070951C107068
:1004D0000000000000000000951C1070951C1070BA
:1004E000951C1070000000000000000000000000DB
:1004F0000000000000000000951C1070951C10709A
:10050000951C1070000000000000000000000000BA
:10051000951C1070951C1070951C1070951C107017
:10052000951C1070951C1070951C1070951C107007
:10053000351B1070951C1070951C1070951C107058
:10054000951C1070951C1070951C1070951C1070E7
:10055000951C1070951C1070951C1070951C1070D7
:10056000951C1070951C1070951C1070951C1070C7
:10057000951C1070951C1070951C1070951C1070B7
:10058000951C1070951C1070951C1070951C1070A7
:10059000951C1070951C1070951C1070951C107097
:1005A000951C1070951C1070951C1070951C107087
:1005B000951C1070951C1070951C1070951C107077
:1005C000951C1070951C1070951C1070951C107067
:1005D000951C1070951C1070951C1070951C107057
:1005E000951C1070951C1070951C1070951C107047
:1005F000951C1070951C1070951C1070951C107037
:10060000951C1070951C1070951C1070951C107026
:10061000951C1070951C1070951C1070951C107016
:10062000951C1070951C1070951C1070951C107006
:10063000951C1070951C1070951C1070951C1070F6
:10064000951C1070951C1070951C1070951C1070E6
:10065000951C1070951C1070951C1070951C1070D6
:10066000951C1070951C1070951C1070951C1070C6
:10067000951C1070951C1070951C1070951C1070B6
:10068000951C1070951C1070951C1070951C1070A6
:10069000951C1070951C1070951C1070951C107096
:1006A000951C1070951C1070951C1070951C107086
:1006B000951C1070951C1070951C1070891B107083
:1006C000951C1070951C1070951C1070951C107066
:1006D000951C1070951C1070951C1070951C107056
:1006E000951C1070951C1070951C1070951C107046
:1006F000951C1070951C1070951C1070951C107036
:10070000951C1070951C1070951C1070951C107025
:10071000951C1070951C1070951C1070951C107015
:10072000951C1070951C1070951C1070951C107005
:10073000951C1070951C1070951C1070951C1070F5
:1007400000000000511B10706D1B107010B5054C9F
:10075000237833B9044B13B10448AFF3008001236D
:10076000237010BD6003003400000000E803117026
:1007700008B5034B1BB103490348AFF3008008BD24
:100780000000000064030034E803117072B64FF0FB
:10079000E0201D49C0F8081D1C48016841F0010116
:1007A00001601B481849096801601A4800684FF049
:1007B0006401B0FBF1F0A0F101014FF0E0204161D4
:1007C0004FF0070101614FF00001C0F8181D4FF014
:1007D0007F41C0F81C1D1049C0F8201D0F484FF084
:1007E0000101016062B67047FFF7FEBF01B5BDE8C9
:1007F0000140704701B501F063F9BDE80140704761
:10080000FFF7FEBFFFF7FEBF00041070001000E00E
:10081000184D00347C0000340000FF40F4390034EF
:100820004FF000002D4A1060EFF3148020F0040018
:1008300080F3148862B64FF080504FF0E021C1F889
:10084000040DBFF34F8FBFF36F8FFEE72448254A97
:100850004FF00003016891B10360EFF3098C2CE9BC
:10086000F00F1EF0100F01D12CED108A1E4C4CF829
:1008700004EDC1F808C025680DB18D61236072B622
:100880001168D1B1016062B64F68174C8D6907F1EC
:1008900001074F602560D1F80CC08CF30B88D1F8AC
:1008A00008C05CF804EB1EF0100F01D1BCEC108AFC
:1008B000BCE8F00F8CF30988704772B611680160CC
:1008C00009B962B6F9E74FF000674FF0E028C8F8C1
:1008D000047D62B6D8E700BF704700007C4C00344E
:1008E000144D0034104D00341C4D0034026922F0C8
:1008F0000702A2F144026FF0020313604FF00003FD
:1009000053609360D360136153619361D361136249
:1009100053629362D362136353634FF0FF33936365
:10092000D1634FF080731364826070472249086876
:1009300000F101000860214B1A683AB1A2F10102EE
:100940001A601AB91E4B4FF0010018601D49086863
:10095000026822B11C4B4FF001021A6008E000F15E
:1009600004001A4B1A68904201D1194B18680860AC
:10097000134B1A6812B914490868C8B101B5124975
:10098000086808B106F0AAFD0D4B1A6872B106F0AE
:1009900057FD1048016849B90F4801680F4A1368AC
:1009A0000F484FF08052994200D00260BDE80140EC
:1009B000BFF34F8F704700007C5200341C4D003451
:1009C00078520034EC510034E8510034F0510034D6
:1009D000F45100347C4C0034144D0034104D00347C
:1009E00004ED00E013B54FF4005000F04FF834234D
:1009F0001F4A00931F494FF480631F4806F0EAFE28
:100A00001E4C606188B100F04BF834231C4A0093FF
:100A10001C494FF400531C4806F0DCFEE061A8B10D
:100A200002B0BDE8104000F03BB842F2010000F017
:100A30002DF8114800F0F0F8A06110B100F030F886
:100A4000FEE742F2020000F021F8DEE742F2100079
:100A500000F01CF80C4801F0DFF9A0620028DFD19B
:100A600042F2110002B0BDE8104000F00FB800BF24
:100A7000E423003460041170B0230034000000341B
:100A8000B0030034730411707C030034034B5A68C4
:100A90009A605860BFF35F8F704700BF000000345A
:100AA000034B5A68DA601861BFF35F8F704700BF6D
:100AB0000000003408B5FFF7E9FF114B114AD86078
:100AC0001861916A1964D16A5964116B9964D16B88
:100AD000D964916B1965516B596551689965526A72
:100AE000DA65EFF305821A66EFF314825A66EFF3C4
:100AF00008829A66EFF30982DA66BFF35F8F08BD5A
:100B00000000003400ED00E02DE9F0474FF4804094
:100B100090B0FFF7BBFF384B04AF302138461B883D
:100B2000364A0EF019FC0025DFF8E480DFF8E49087
:100B30004FF6FF74D8F83C3039F835000133C8F867
:100B40003C30A04209EBC503D3F804A050D04FF6C7
:100B5000E07398424CD040F2FF73984248D04CF278
:100B60001863984208BF4FF4784402F071FB244B9D
:100B70004FF49672019320230A20194600930294A1
:100B800002F02EFD1F4B1026019318234FF496728E
:100B900000934C210A20029402F022FD33464FF4C8
:100BA000B4726E210A20CDE90174009602F018FD9E
:100BB000154BF022CDE90063842133460A200294CC
:100BC00002F00EFD01353346F02284215020CDE99C
:100BD00001A4009602F004FD052D4FF480610B483E
:100BE00008BF002503F03BFB642006F0E9FA9FE70D
:100BF0004FF47844B9E700BF1C4C00348C041170EA
:100C0000A1041170B0041170C104117000180256D3
:100C100000000034B80E11700123B02200B589B075
:100C2000CDE90532082200230292CDE903234FF4D7
:100C300080520192044A054900920548054A06F08F
:100C40005BFF09B000BD00BFE4270034E30411706E
:100C5000E4370034090B107005F0D8BE044B82B0A5
:100C6000C3F85C0AD3F85C320193019B02B0704771
:100C7000008002564FF4604008B5FFF71BFF72B6C4
:100C8000FEE700002DE980484FF4805091B0FFF757
:100C9000FDFE2F4B5A6912F4003211D1BFF34F8F72
:100CA000BFF36F8FC3F85022BFF34F8FBFF36F8F27
:100CB0005A6942F400325A61BFF34F8FBFF36F8F0E
:100CC000234A536913F4803328D1C2F88430BFF328
:100CD0004F8F43F6E074D2F88030C3F3C900C3F3FA
:100CE0004E335B0100F1010E01464EF001E003EAD4
:100CF000040646EA8175C2F8605201390FF007C850
:100D0000203B13F1200FEDD1BFF34F8F536943F414
:100D100080335361BFF34F8FBFF36F8F02F004FE38
:100D200041F20100FFF7B2FE02F0D8FC41F20200EE
:100D3000FFF7ACFE064D074BAB60BFF34F8FBFF321
:100D40006F8F0E2002F0CAFD30B1FFF793FF00BF96
:100D500000ED00E00004107002F01CFE62B6DC4BF7
:100D6000AA681A604FF0E023DA4A196911605A69DB
:100D7000D94B1A60EFF31082D84B41F203001A608E
:100D8000FFF784FE41F21000FFF780FE0222D44BF1
:100D900041F211001A60FFF779FED24B03AC0FCB82
:100DA000042684E80F004FF0013720464FF4806E90
:100DB00000224EF001E050F804CB07FB02F1930053
:100DC00003F1104303F5001381EA0C0119600132AD
:100DD0000FF00DC8BFF34F8F4FF0800E4EF001E0C3
:100DE000C14BC5F8703220330FF005C8BFF34F8FE9
:100DF000BFF36F8FBFF34F8FBFF36F8F00224FF49E
:100E0000806C50F8048C07FB02F1930003F110434F
:100E100003F50013D3F800E081EA0801714500F002
:100E20002385B24A13600022B14B1960B14BC3F85D
:100E300000E0B14B1A601B68002B86D041F2120013
:100E4000FFF724FE1422002120460EF0FFFA4FF493
:100E50008030FFF703FF0420FFF700FF1020FFF7AB
:100E6000FDFE0820FFF7FAFE8020FFF7F7FE0220C4
:100E7000FFF7F4FE4FF40040FFF7F0FE4FF4804020
:100E8000FFF7ECFE4020FFF7E9FE2020FFF7E6FE2B
:100E90000120FFF7E3FE4FF40050FFF7DFFE0022D2
:100EA00044F20231954803F0D5F9002240219448DC
:100EB00003F0D0F901224FF48061904803F0CAF9A1
:100EC000002280218F4803F0C5F9002201218E48BD
:100ED00003F0C0F9002280218C4803F0BBF9002206
:100EE00002218B4803F0B6F900220121894803F062
:100EF000B1F900221821884803F0ACF901224FF41F
:100F0000806186484FF0000B03F0A4F97F2321464F
:100F10007E48CDE9033BCDF814B003F001F84FF45F
:100F2000725321467648CDE9033BCDF814B002F068
:100F3000F7FF4BF2850321467048CDE9033BCDF81E
:100F400014B002F0EDFF43F60A4321466E48012536
:100F5000CDE9033BCDF814B002F0E2FF44F20233D6
:100F600021466648CDE90335CDE905BB02F0D8FF3F
:100F7000402302264FF4806721466148CDE90335BE
:100F8000CDE905BB02F0CCFF21465C48CDE90375F5
:100F9000CDE9056B02F0C4FF4FF492734FF0800867
:100FA00021465848CDE9033BCDF814B002F0B8FF14
:100FB00021465448CDE90385CDE905BB02F0B0FFD9
:100FC00021465148CDE90355CDE905BB02F0A8FF04
:100FD0000A2321465248CDE9033BCDF814B002F074
:100FE0009FFF21464948CDE90385CDE905BB02F0C5
:100FF00097FF21464648CDE90365CDE905BB02F0E0
:101000008FFF4DF6DE0321464448CDE9033BCDF882
:1010100014B002F085FF43F6AA4321463D48CDE9CE
:10102000033BCDF814B002F07BFF4FF4825321460E
:101030003948CDE9033BCDF814B002F071FF4FF40D
:1010400084534FF008094FF0100A21463548CDE986
:10105000033BCDF814B002F063FF21462D48CDE9E3
:101060000355CDE905BB02F05BFF21462A48CDE9D7
:101070000395CDE9055B02F053FF21462748CDE9F2
:101080000375CDE9056B02F04BFF21462248CDE9FF
:1010900003A5CDE905BB02F043FF4FF48150FFF7F4
:1010A000F5FC214A214B104613604FF48033C2E90E
:1010B0000136FF23C2E911B6C2F80CB0C2F84CB039
:1010C000136502F06EFD00287FF43FAE30E000BFF4
:1010D000A03800349C3800349838003494380034F8
:1010E000B43800340004117000002090AC38003493
:1010F000A8380034A4380034B03800340010025648
:1011000000080256001C0256000C0256004002560F
:10111000003802560014025600000256001802560B
:1011200000040256003402566039003400100258A0
:101130002946DA4802F094FE834600287FF405AE83
:1011400041F22100FFF7A2FC3422594620460EF05E
:101150007DF9D34BD34A9F21C3E9002B1322C3E966
:101160000526162240F29F40C3E9071240F26E2284
:1011700040F23F5CC3E9090240F27A221846C3E913
:101180000BC2C3E902BBC3F810B0A3F834B083F8B4
:1011900036B003F0FFFA024600287FF4D6ADFF23F5
:1011A0004FF41671CDE90830CDE9030705904FF0F3
:1011B000040B0520BA4BCDE9061BCDE90B02CDE9A6
:1011C0000D71184621460A97ADF83C208DF83E2057
:1011D00003F012FC019000287FF4B7AD41F2220029
:1011E000FFF754FCB048019BB04AC0E905330260E8
:1011F0008380056202F02CFC00287FF4A6AD41F24A
:101200002300FFF743FC4FF40072A94B2146C3F8BB
:10121000582AD3F8583209200293029B03230396DD
:10122000049305F035FA2146484605F031FA214687
:101230000A2005F02DFA2146032005F029FA0321A2
:101240009C4805F03BFA03219B4805F037FA03213F
:101250009A4805F033FA0321994805F02FFA202126
:10126000284603F053FC40F201322946954802F02B
:10127000FFFF40F201323146924802F0F9FF40F29E
:10128000013259468F4802F0F3FF40F201324946DD
:101290008C4802F0EDFF40F201325146894802F0DD
:1012A000E7FF40F201322021864802F0E1FF40F2E0
:1012B00001324021834802F0DBFF40F201324FF45B
:1012C0008071804802F0D4FF40F201324FF4007187
:1012D0007C4802F0CDFF40F201323946794802F0F5
:1012E000C7FF40F201324FF40061764802F0C0FFC0
:1012F00040F201324FF48051724802F0B9FF40F2DF
:1013000001322946704802F0B3FF40F20132314603
:101310006D4802F0ADFF40F2013249466A4802F0E2
:10132000A7FF40F201324021674802F0A1FF40F2DE
:1013300001324146644802F09BFF40F201323946D7
:10134000614802F095FF40F201324FF400615E48BF
:1013500002F08EFF40F201324FF480515A4802F001
:1013600087FF40F201324FF40041574802F080FFFE
:1013700040F201322946554802F07AFF40F201322C
:101380004946524802F074FF40F2013251464F483C
:1013900002F06EFF40F2013220214C4802F068FF5B
:1013A00040F201324021494802F062FF40F201322E
:1013B0004146464802F05CFF40F20132394643485C
:1013C00002F056FF40F201324FF400613F4802F054
:1013D0004FFF40F201324FF480513C4802F048FF89
:1013E00040F201324FF40051384802F041FF40F220
:1013F00001322946364802F03BFF40F201323146C5
:10140000334802F035FF40F201325946304802F0CD
:101410002FFF40F2013249462D4802F029FF40F2E9
:10142000013251462A4802F023FF40F20132394688
:10143000274802F01DFF40F201324FF400612448BA
:1014400002F016FF40F201324FF48051204802F0C2
:101450000FFF40F201324FF400511D4802F008FF27
:1014600040F201324FF48041194802F001FF40F28E
:1014700001322946174802F0FBFE40F201323146A4
:10148000144802F0F5FE40F201325946114802F0CC
:10149000EFFE40F2013249461EE000BF60390034E1
:1014A000B838003400100058C8390034004C0256D7
:1014B00000800256160000101D00002005000030BC
:1014C00007000030000002560004025600080256D1
:1014D000000C025600100256DB4802F0C9FE40F232
:1014E00001325146D84802F0C3FE40F201322021B9
:1014F000D54802F0BDFE40F201324021D24802F050
:10150000B7FE40F201324146CF4802F0B1FE40F250
:1015100001324FF48071CC4802F0AAFE40F2013251
:101520004FF40071C84802F0A3FE40F20132394680
:10153000C54802F09DFE40F201324FF48051C2488E
:1015400002F096FE40F201324FF40051BE4802F024
:101550008FFE40F201324FF48041BB4802F088FE1A
:1015600040F201324FF40041B74802F081FE40F2F0
:1015700001322946B54802F07BFE40F20132314685
:10158000B24802F075FE40F201324946AF4802F01F
:101590006FFE40F201322021AC4802F069FE40F2B9
:1015A00001324146A94802F063FE40F201324FF495
:1015B0008071A64802F05CFE40F201324FF40071E7
:1015C000A24802F055FE40F2013239469F4802F02F
:1015D0004FFE40F201324FF400619C4802F048FE99
:1015E00040F201324FF48051984802F041FE40F23F
:1015F00001324FF40051954802F03AFE40F20132B8
:101600002946934802F034FE40F2013231469048B8
:1016100002F02EFE40F2013259468D4802F028FEBB
:1016200040F2013249468A4802F022FE40F201327D
:101630005146874802F01CFE40F2013240218448A6
:1016400002F016FE40F201324146814802F010FEDF
:1016500040F201324FF400717D4802F009FE40F281
:10166000013239467A4802F003FE40F201324FF46B
:101670000061774802F0FCFD40F201324FF48051E6
:10168000734802F0F5FD40F201324FF4005170480A
:1016900002F0EEFD40F201324FF480416C4802F05E
:1016A000E7FD40F201324FF40041694802F0E0FDED
:1016B00040F201325946674802F0DAFD40F2013249
:1016C0005146644802F0D4FD40F2013220216148C5
:1016D00002F0CEFD40F2013241465E4802F0C8FD04
:1016E00040F201324FF480715A4802F0C1FD40F2DD
:1016F00001324146584802F0BBFD40F201324FF43E
:101700008051554802F0B4FD40F201322946534859
:1017100002F0AEFD40F201323146504802F0A8FD21
:1017200040F2013259464D4802F0A2FD40F201322A
:1017300051464A4802F09CFD40F2013220214748C0
:1017400002F096FD40F201322946454802F090FD34
:1017500040F201323146424802F08AFD40F2013245
:1017600059463F4802F084FD40F2013249463C4868
:1017700002F07EFD40F201325146394802F078FD18
:1017800040F201322021364802F072FD40F201326F
:101790004021334802F06CFD40F2013241463048AE
:1017A00002F066FD40F2013229462E4802F060FD4B
:1017B00040F2013231462B4802F05AFD40F201322C
:1017C0005946284802F054FD40F201324946254866
:1017D00002F04EFD40F201325146224802F048FD2F
:1017E00040F2013220211F4802F042FD40F2013256
:1017F00040211C4802F03CFD40F2013241461948AC
:1018000002F036FD41F22400FFF740F901F0C4FB7D
:1018100041F23000FFF73AF901F02EFD41F23100BC
:10182000FFF734F94FF48250FFF730F9FFF714FA5D
:101830004FF48061064802F012FD4FF47A7002F016
:1018400097F800F019FBF3E7001002560014025657
:1018500000180256001C0256003402560038025688
:10186000003C025600400256BCF1010C02F101029C
:101870007FF4C9AA013E7FF499AA0122FFF7D9BAE1
:10188000C0B26DED81CF11B140B1012809D09FECFC
:10189000100A9FE80F90FDEC81CF7447024B19604E
:1018A000F5E7024BFBE700BFF0390034EC390034B8
:1018B000044B82B0C3F85C0AD3F85C320193019BFD
:1018C00002B070470080025608B503F06FF901219D
:1018D000084603F03BF903F071F90121022003F0FF
:1018E00035F903F073F90021032003F02FF903F019
:1018F00075F9BDE808400021042003F027B9000075
:101900000268044B9A4203D14FF40020FFF7D0BF86
:10191000704700BF004C02560268074B82B09A42E3
:1019200007D10222054BC3F8602AD3F86032019335
:10193000019B02B0704700BF0010025800800256A1
:10194000F0B50446EBB01422002101A80DF07EFD95
:101950004FF4C872002106A80DF078FD2268384BBC
:101960009A426BD100234FF08072CDE906234FF0ED
:1019700000734C931E2306A8279303F0DBF908B1EC
:10198000FFF778F902242F4B2046C3F87C4AD3F89E
:101990007C226B4600921B68FFF78AFF8020FFF7CE
:1019A00087FF2020FFF784FF0120FFF781FF402001
:1019B000FFF77EFF002603250E2749F61043224835
:1019C00001A9CDE90134CDE90365059702F0A8FA34
:1019D00010231E4801A9CDE90134CDE9036505971F
:1019E00002F09EFA4FF44073194801A9CDE9013481
:1019F000CDE90365059702F093FA48F62773154879
:101A000001A9CDE90134CDE90365059702F088FA13
:101A10000123CDE901340A230F4801A90593CDE93B
:101A2000036502F07DFA4FF408530B4801A9CDE994
:101A30000134CDE90365059702F072FA6BB0F0BD91
:101A4000001000580080025600040256001C025686
:101A500000140256000002560018025608B502682B
:101A6000104B9A421DD102220F4B49F61041C3F888
:101A70007C220E4802F038FB10210D4802F034FBA6
:101A80004FF440710B4802F02FFB48F627710A48CB
:101A900002F02AFBBDE8084042F20121074802F0AB
:101AA00023BB08BD001000580090025600040256E7
:101AB000001C02560014025600000256001802567E
:101AC000074A08B513680133136001F03FFF054B67
:101AD0001B681BB1BDE80840FEF728BF08BD00BF6A
:101AE000F8390034F43900344EF2010008B5FEF73D
:101AF000E1FFFEE74EF2020008B5FEF7DBFFFEE76E
:101B00004EF2030008B5FEF7D5FFFEE74EF20400E3
:101B100008B5FEF7CFFFFEE74EF2050008B5FEF769
:101B2000C9FFFEE74EF2060008B5FEF7C3FFFEE769
:101B300070470000044B05485A6B01325A633C223F
:101B40009A6302F002B900BF00000034603900342B
:101B5000044B05481A6B01321A63C1229A6302F0E2
:101B6000A8BE00BF00000034B8380034044B05485C
:101B70001A6B01321A63C2229A6302F09ABE00BF46
:101B800000000034B838003470470120704708B5B1
:101B90000DF0BAFC162303604FF0FF3008BD08B506
:101BA0000DF0B2FC16230360FEE770B50D46144637
:101BB0000E46731B9C4201DC204670BDAFF30080D3
:101BC00006F8010BF5E770B50D4614460E46731B7B
:101BD0009C4201DC204670BD16F8010BAFF300807B
:101BE000F5E74FF0FF3070474FF4005300204B6093
:101BF0007047012070470020704700000A4A0346E2
:101C0000106810B508B9094810600949094C034427
:101C1000091B8B4206D90DF077FC0C2303604FF0B3
:101C2000FF3010BD1360FCE7FC390034F855003478
:101C300000002034000800000F4880F30A880F4895
:101C4000854601F0FFFC0E480E490F4A002302E0D2
:101C5000D458C4500433C4188C42F9D30B4A0C4CEA
:101C6000002301E013600432A242FBD30DF052FCCA
:101C7000FFF708F8FEE7000000F81F3400002034EA
:101C800000000034F0000034905B117060030034F9
:101C9000F4550034FEE708B572B6FEF7EBFFFEE739
:101CA00008B5EFF3108272B6BFF34F8FBFF36F8F9B
:101CB00043782BB902F0010202700133437008BD72
:101CC000FF2BFAD1FFF7E7FF08B543781BB972B6CF
:101CD000FEF7D0FFFEE7013BDBB2437013B9037898
:101CE00003B962B608BD10B5044620B90DF00CFC6E
:101CF0001623036010BD02200DF09AF9206010B188
:101D000000230380F6E7FFF7C6FF08B508B9FFF721
:101D1000C2FFBDE80840FFF7C3BFFFF7F6BF08B535
:101D200018B972B6FEF7A6FFFEE7BDE80840FFF758
:101D3000CBBFFFF7F4BF000010B5044618B972B668
:101D4000FEF798FFFEE7D0E88F3FDBB20BB1002033
:101D500010BD0A48FFF7A4FFD4E88F3FDBB243B9B8
:101D600063781BB172B6FEF785FFFEE70120607055
:101D7000EEE70248FFF7A8FFE9E700BF003A0034AA
:101D800008B508B9FFF787FF437833B100234370E4
:101D9000BDE808400348FFF797BF72B6FEF76AFF39
:101DA000FEE700BF003A003408B518B972B6FEF776
:101DB00061FFFEE70122C0E88F2FBDE80840FFF772
:101DC000DFBF000010B50C4C23689BB943F2010043
:101DD000FEF75CFE00F0A4FD00F020FD0123074AA1
:101DE0002360D36A43F20200BDE810400133D3629E
:101DF000FEF74CBE10BD00BF083A003400000034AE
:101E000008B54FF44050FEF741FEFFF7DBFFBDE899
:101E1000084000F087BD0000002310B58AB04FF4E1
:101E20007F6209A9099305F09BFC0F4C03462062D1
:101E3000B8B90122B021CDE905210522CDE9022260
:101E40004FF47F620192099A049000920749084A70
:101E5000084805F051FE0028606218BF0E200AB045
:101E600010BD0220FBE700BF00000034EF0411703A
:101E7000011E10700C3A003408B5FFF7A3FF43F2BF
:101E80000300FEF703FEBDE8084000F04BBD7047BD
:101E900000207047704710B5044604210DF0A0F8EB
:101EA000204610BD7047704770477047012380F887
:101EB0007C1080F87D30704770470020704700002C
:101EC0008164003918BF0121014B1970704700BFB0
:101ED00083520034704700207047C36B0BB1084633
:101EE00018477047406803689B69184770477047F8
:101EF000704700F023BE00F0B1BD00F0B5BD00F0AA
:101F0000D1BD00F087BD00F0FBBD00F003BE00F0C6
:101F10008BBD00F0C1BD00F0C1BD10B5044606F098
:101F20004BFD23682046BDE81040D3F8BC3018476D
:101F300010B5044688210DF053F8204610BD00006E
:101F400010B590F8381090F87C400C4B8C421A7801
:101F500009D03AB90A490B4A08881488108001222E
:101F60000C801A7010BD002AFCD0064A044914885F
:101F700008880C8010800022F3E700BF82520034F2
:101F80008A5200348C52003400B538B331B3144A4D
:101F90005369DB0322D501F11F0E864420F01F0395
:101FA0002EF01F0EAEEB030EBEF1000F12DDBFF3DD
:101FB0004F8FAEF1200E4FEA5E1E0EF1010E4EF075
:101FC00001E0C2F8683220330FF005C8BFF34F8F2D
:101FD000BFF36F8FBFF34F8FBFF36F8F00BD00BF95
:101FE00000ED00E010B5044603685B6B98474FF4C2
:101FF0009611FFF7C9FF2046BDE8104005F04FBE1F
:1020000008B5094B1B888B4203D8084B1B889342A9
:1020100005D9A521064B074A07480CF0E5FF074BF9
:102020001980074B1A8008BD8C5200348A52003444
:10203000F80411705B0511709E0511708852003410
:10204000865200342DE9F0410D460446194635B953
:1020500040F20131144B154A15480CF0C5FFC0E998
:102060001052003A18BF01220368124ED3F8903084
:1020700032709847E569A5B12B681F68337873B152
:10208000236820465B6B9847236C834207D1616CC1
:10209000094B28461A883B46BDE8F0411847216C99
:1020A000F6E7BDE8F08100BFE60511701E0611706D
:1020B0009E0511708452003488520034034690F813
:1020C0007E0018B1586803681B6818477047F8B558
:1020D000036805465B6B0C46984740B3B4F904307F
:1020E000002B24DDB4F90620002A20DDB4F900100D
:1020F000B1F5806F1BD2B4F90260B6F5167F16D227
:10210000CF18B7F5806F06EB020788BFC1F5806373
:10211000B7F5167F88BFC6F51672013A01EB862621
:1021200003EB8223590000EB4600FFF72DFF214609
:102130002846BDE8F84000F0B3BC00001FB53423CA
:102140001A4A00931A4964231A4805F043FB0346D0
:1021500028B13A21184B194A19480CF045FF0422BE
:10216000144803A905F0FCFA18B14121154B134A94
:10217000F2E7042338221449CDE900321348012242
:10218000039B05F087FB18B14821114B0B4AE3E78D
:102190001C2301220F49104805F032FC18B14E21D2
:1021A0000E4B064AD8E705B000BD00BFF000003472
:1021B0006C061170103B003480061170AF06117070
:1021C000DE061170500711708E071170BC3A003492
:1021D000A2071170CF071170F43A0034E5071170AF
:1021E00008B54FF0FF31054805F05AFC28B15921D8
:1021F000034B044A04480CF0F7FE08BDF43A0034DF
:102200001408117040081170DE061170064808B5F8
:10221000836843B905F064FC28B16621034B044A86
:1022200004480CF0E1FE08BDF43A00347D0811705A
:10223000A9081170DE0611700021014805F030BCBC
:10224000F43A003438B5EFF3108572B60C4C0D48F3
:10225000236801332360836843B905F041FC28B14A
:102260008C21094B094A0A480CF0BEFE2368013B49
:10227000236085F31088BDE8384004F0D7BF00BF65
:102280007C4C0034F43A00347D081170E60811707B
:10229000DE061170074808B502694AB9064905F01B
:1022A00087FB28B1A821054B054A06480CF09CFE87
:1022B00008BD00BFBC3A0034700000342A09117018
:1022C00049091170DE06117008B500220A490B4851
:1022D00005F046FB38B10A2805D0CB21084B094A46
:1022E00009480CF081FE4FF0FF320349034805F026
:1022F00037FB0028F1D108BD70000034BC3A00342F
:10230000790911709A091170DE06117004F058BF36
:1023100003685B6C18470120704703689B6A184785
:10232000FEE740F2EF3070474FF08052044B0360FD
:10233000044BC3F88420BFF34F8FBFF36F8F7047F8
:10234000EC0F117000E100E010B504464FF45A6143
:10235000FFF7EAFF20460CF043FE204610BD0000C8
:1023600002220C4B82B0C3F8602AD3F860120191AC
:102370000199C3F8202A03F58053C3F82022064BA5
:10238000064A5A62064A1A624FF08052054B5A605A
:1023900002B070470080025660390034212310706B
:1023A000DD25107000E100E008B50A2809D8DFE853
:1023B00000F006100E080808081010101000022087
:1023C00008BD9121044B054A05480CF00DFE002084
:1023D000F6E70120F4E700BFCB091170E6091170A0
:1023E000310A117070B50C46887FFFF7DDFFA58AB2
:1023F000E28A114B42EA054258635A64628B2169B2
:10240000521BD9631A642668E568082E0DD19A61BB
:102410001A615862207F094A42EA0062DA61084A7A
:102420001D625961D9601A6070BD0022D8611A61BD
:10243000044A9D63F7E700BF00100258090001003D
:10244000012302000123030008B50B280BD8DFE8A5
:1024500000F00612100A0A0A0A08080808080220F2
:1024600008BD0520FCE77021044B054A05480CF027
:10247000BBFD0020F4E70120F2E700BFCB0911709B
:10248000A10A1170310A11702DE9F04191F81D80F7
:102490000C464046FFF7D8FFA77F05463846FFF7B2
:1024A000D3FF06463846FFF77FFFA18A628B454B74
:1024B000521A1A649A61228B521A1A61E28A58637C
:1024C00042EA01425A6421696268D963DA60D4F849
:1024D00000C0207FBCF1800F4FEA006229D013D8E2
:1024E000BCF1200F45EA020064D0BCF1400F61D07E
:1024F000BCF1040F5ED0334B154345F40035B845AD
:10250000DD615BD0304A40E0BCF5807F07D0BCF590
:10251000007FF0D142F4003242F0090203E042F4BD
:10252000003242F00A02DA61E2681A625E625961C0
:102530002AE0A4682A4342F40032271DDF62DA61F0
:1025400022785E62596142B1012A21D040F21B110A
:102550001E4B1F4A1F480CF047FDDA69618822F4C0
:102560007F42013922F0100242EA01220121DA61A0
:10257000144BDA6942F02002DA61DA699206FCD47F
:1025800010229A600029BDD0134A1A60BDE8F0817C
:10259000DA69B0F1FF01608822F47F4200F1FF3078
:1025A00022F0100242EA002242F0100218BF01217C
:1025B000DA61DDE740F40030D861B7E742F201327A
:1025C000E3E700BF0010025801230100EB0A11707D
:1025D000050B1170310A117001230200024B1B68B8
:1025E000586803685B6918479052003470B5044618
:1025F000002625460A4B0C3060602672667245F84C
:10260000203B6022294606F023FB4FF0600E4EF07F
:1026100001E0EE6024350FF005C0204670BD00BF1C
:10262000EC0F1170034B1A68D207FCD423229A6076
:10263000704700BF00100258124A00B55369DB030F
:102640001ED500291CDD00F01F031944BFF34F8F76
:102650006FEA000E43189E4420394FEA5E1E203177
:102660000EF1010ED8BF4FF0010E4EF001E0C2F89E
:10267000680220300FF005C8BFF34F8FBFF36F8F94
:1026800000BD00BF00ED00E030B50E4C2568ED0741
:10269000FCD42325A5600225120442F00102FF2B81
:1026A00065636264E063E16008D01B0643F00213D7
:1026B000E361054B65626061236030BD034BE361FC
:1026C0000123F9E70010025801000200020002FF96
:1026D00030B50B4C2568ED07FCD42325A5600225F9
:1026E00012041B0643F4003342F001026563626486
:1026F000E063E160E361034B65626061236030BDCC
:102700000010025801000200012070470C207047A1
:102710000C2303FB0100083070470C2303FB01006E
:1027200008307047012070474020704700EB81104F
:102730000830704700EB8110083070470120704767
:102740001020704700EB01100830704700EB0110BB
:102750000830704710B50446024B036005F08BFA51
:10276000204610BDA410117010B50446FFF7F2FF0B
:10277000204614210CF034FC204610BD10B5044650
:10278000024B036005F077FA204610BD70101170FF
:1027900010B50446FFF7F2FF204648210CF020FC5C
:1027A000204610BD10B50446024B036005F063FAE5
:1027B000204610BD3C10117010B50446FFF7F2FF23
:1027C000204618210CF00CFC204610BD10B5044624
:1027D000074B40F8743BFFF7BDFF04F12C00FFF7F7
:1027E000CDFF04F11400FFF7DDFF204610BD00BF50
:1027F000D810117008B50248FFF7E8FF08BD00BF08
:10280000044A003410B50446FFF7E0FF20464FF4B9
:10281000F4710CF0E5FB204610BD00002DE9F341FA
:1028200000F0FCF90024054600F0FCF923460146BF
:1028300022462846009409F0B1F92E4B2E4A204634
:102840001A6000F0F1F92D4809F006F92C4FD7E88D
:10285000AF4F14F0010446D13846FFF76DFA002857
:1028600041D02849284A01F12C0601F1140301F155
:10287000740501F188088E604B6018460A60CD60CF
:102880001822C1F8108021460CF0E0FD05F0F4F9A3
:102890001E4B30464822214645F8603C0CF0D6FDE0
:1028A000304605F0E9F91A4B1422214628463360D8
:1028B0000CF0CCFD284605F0DFF92C3E154B3246D6
:1028C00006F5F2714046736700F014FB06F5F270EE
:1028D00000F03CFB404600F029FB0F480CF0A2FB47
:1028E0003846FFF761FA0D4802B0BDE8F041FFF746
:1028F00000BB00BFE4520034CC3B00347400003411
:10290000004A0034044A0034D81011703C10117091
:1029100070101170A4101170F5271070443B003432
:1029200070470000014805F024BA00BF443B003462
:1029300070B5254E254B264C264D30462360FFF7BB
:1029400055FE28460AF030FB00224FF48071224BDE
:102950002248C3E913122249C3E90422C3E91B1226
:102960002049C3E90622C3E91F011F49C3E9082220
:10297000C3F884101D49C3E90A22C3E90F22C3E941
:102980001122C3E91522C3E918221A639A8683F833
:102990005C209A6683F874209A67C3E90165DC605D
:1029A0000B604FF48061124883F838200180114891
:1029B00001804FF4167110480180104801801049C1
:1029C0000A70104A1A6070BD5C3C0034E80E117049
:1029D000FC490034D03B0034443B0034000001018A
:1029E00001000001000496003200140090520034EF
:1029F0008C520034885200348A520034865200349B
:102A000082520034000F11700148FFF78DBC00BFE7
:102A10005C3C00349022034B83F83C2383F8C123B1
:102A2000704700BF00E100E0094A0A49D3680A483C
:102A3000C3F30B03013B9BB20B801169C1F30B0184
:102A4000013901801364536E43F0010353667047EC
:102A500000100058EE4B0034EC4B0034014B586B27
:102A6000704700BF001100580122024B596343F820
:102A7000DC2C704700110058064B586CDB68C0F323
:102A80000B00C3F30B030133984226BFC01A80B278
:102A9000002070470010005805F03EB905F048B915
:102AA00005F003B905F07DBA144A70B55369DB032C
:102AB00023D50023C2F88430BFF34F8F43F6E07470
:102AC000D2F88030C3F3C900C3F34E335B0100F189
:102AD000010E01464EF001E003EA040646EA817564
:102AE000C2F8745201390FF007C8203B13F1200FD0
:102AF000EDD1BFF34F8FBFF36F8F70BD00ED00E0DE
:102B00004FF08052024B5A6002229A61704700BF18
:102B100000E100E04FF08052074BC3F88420BFF380
:102B20004F8FBFF36F8F0222C3F89820BFF34F8FF0
:102B3000BFF36F8F704700BF00E100E070B504463F
:102B400005F003F923689D6E07F024FA014620463C
:102B5000A8470E4B2046E3632368D3F8A830984774
:102B60004FF6FF73984210D0094B1B786BB90122C6
:102B700084F84C2022682046D2F88C504FF0104147
:102B8000AC46BDE870401A466047FEE70D23107062
:102B90008452003438B5184C23685BB3174B184A7D
:102BA0001B6C11888B4216D10025164B198801F039
:102BB0008FFF236893F86E2083F88050013283F8EA
:102BC0006E20FFF767FB206805F0F6FE2846BDE89B
:102BD0003840FFF768B901F07BFF2468236820467E
:102BE0001B6A98470123002084F88030BDE83840F4
:102BF000FFF75AB938BD00BF90520034001000589A
:102C0000EE4B0034EC4B003400207047704710B599
:102C1000044604210CF0E4F9204610BD004870473A
:102C2000F41011700120704738B510BB114B1248D9
:102C30001C681249B4B122682244026062682244CE
:102C40000A60A268144400220D4B1A8000F026F896
:102C5000054600F021F80B4B1C600B4B1D600B4B25
:102C6000188006E00A4B0B4A0C601C680260002CBE
:102C7000E9D138BDFC4B0034F44B0034F04B003448
:102C8000F84B0034E8520034E0520034DC52003497
:102C900008111170705B1170002070470048704778
:102CA000004C00347047704770477047704770475A
:102CB000704700F598730868496803C37047704708
:102CC0007047416070470123037270477047704737
:102CD000064BC0F84801C0F84C310023C0F8503111
:102CE00000F5A273C0F84031704700BFA12D1070ED
:102CF00070474168D0E9023210B401EB6200541011
:102D0000D20748BF0A595DF8044B48BFD35818474B
:102D100042680346104632B19A681AB9D86800F082
:102D2000010070470120704710B504460C210CF0DB
:102D300057F9204610BD10B5044610210CF050F98B
:102D4000204610BD10B504464FF4AE710CF048F9A2
:102D5000204610BD10B50446D0F8580100F0F9F82F
:102D60002046BDE8104007F0A1B910B507F012F9F0
:102D7000BDE810400368DB6B184710B50446D0F877
:102D8000400158B10368DB68984738B1D4F8400176
:102D900003689B6898470023C4F8403110BD0000C9
:102DA0002DE9F14FD0E9556A0746B06803681B6A00
:102DB00098473F2805D8A321454B464A46480CF082
:102DC00013F9706803681B6A98470F2803D8A42179
:102DD000424B404AF2E7F06803681B6A98470B28A9
:102DE00003D8A5213E4B3B4AE8E707F0D3F8DFF8CC
:102DF000FC90043007F0F3F8D9F8000010B1036834
:102E0000DB689847D9F8000010B103681B68984741
:102E1000DFF8DC80D8F8000010B103685B699847E0
:102E2000D7F83C0110B103685B689847D8F80000F8
:102E300010B103681B689847D7F83C0110B10368CC
:102E40009B689847F068002103684FF0000B5B6AAD
:102E50009847244B0446C0F804B080F808B00360DB
:102E6000B068594603685B6A9847054608F096FAC9
:102E700070681D4B59462B600368C5F83CB05B6A0F
:102E800098470646294600F073F8331DC7F83C61A1
:102E9000C9F80040C8F80050CAF800302B6828462E
:102EA000C6F808A0DB68EE639847336830461B68B5
:102EB00098472146284608F00FFC236820461B69E6
:102EC0009847204623685B6901B0BDE8F04F18477A
:102ED000430B1170D10B1170A50C1170EF0C117018
:102EE000920D117014111170CC111170D052003468
:102EF000D452003470B5044616460D4607F01AF950
:102F00000023074AC4E953331460064A204622606E
:102F1000054AC4E94F33C4E95123C4E9556570BD7E
:102F2000D85200345011117038111170064BC0F88E
:102F30004801C0F84C310023C0F8503100F5A273AD
:102F4000C0F84031704700BFA12D10700022026010
:102F500070477047704704387047704710B5044693
:102F600010210CF03DF8204610BDA0F10400F5E75B
:102F700000228260024AC1600260183242607047DB
:102F8000A41111707047704710B5044640210CF031
:102F900027F8204610BD000008B501224FF48061DB
:102FA000054801F057F9BDE8084001224FF480615F
:102FB000024801F04FB900BF001802560010025637
:102FC00000B538B331B3144A5369DB0322D501F19C
:102FD0001F0E864420F01F032EF01F0EAEEB030ED3
:102FE000BEF1000F12DDBFF34F8FAEF1200E4FEA9E
:102FF0005E1E0EF1010E4EF001E0C2F87032203379
:103000000FF005C8BFF34F8FBFF36F8FBFF34F8F24
:10301000BFF36F8F00BD00BF00ED00E000B538B317
:1030200031B3144A5369DB0322D501F11F0E8644E4
:1030300020F01F032EF01F0EAEEB030EBEF1000FAB
:1030400012DDBFF34F8FAEF1200E4FEA5E1E0EF180
:10305000010E4EF001E0C2F85C3220330FF005C8DB
:10306000BFF34F8FBFF36F8FBFF34F8FBFF36F8FE0
:1030700000BD00BF00ED00E02DE9F0470646E4B0DA
:103080004FF4C872002168460CF0E0F903F0C0FA72
:10309000184B01251E600023DFF85CA0DFF85C9070
:1030A000DFF85C80CAF800300446C9F80030C8F880
:1030B0000050E0B100EB56039E4298BFB3FBF6F51B
:1030C0004FF080720023CDE900234FF00073469348
:1030D00000236846CDE9203501F02CFE38B9B4FB59
:1030E000F5F4CAF80050C9F80040C8F8000064B010
:1030F000BDE8F087104C00340C4C0034084C003410
:10310000044C0034054B1A899988187610B910467A
:103110000A46014659839A83704700BF1C4C00340D
:103120002DE9F347DFF8F0A09046BAF81A2081465F
:10313000BDF82870002A67D0BAF81C20002A63D096
:10314000DAF80420002A5FD0DAF80850002D5BD0AE
:10315000404559D8994257D89AF8180048B9013DC6
:10316000ADB2A5EB0800A5EB090598468946ABB2C0
:1031700081B208F101045E1AA4EB090401FB02907C
:1031800002FB0644224D640005EB4005214628461B
:10319000FFF716FF4FF440331E4AA8EB09085360AF
:1031A000DAF804301046013BA3EB0803D36000F0CB
:1031B000F8FC40F20312C7F34513534340F20F22C9
:1031C00007F01F015143FF0A5743213317319B0971
:1031D0008909173741EA0321BF0941EA074101364E
:1031E0002A4608F10103009641F07F41094800F0AA
:1031F00015FD3221074800F02BFD2146284602B07C
:10320000BDE8F047FFF70ABF02B0BDE8F08700BF96
:1032100000000090603900341C4C003410B40A4C9B
:10322000237E23B9A368013B1B1A084699B2636841
:103230005DF8044B03FB0100044B022123F810202E
:1032400003EB4000FFF7BCBE1C4C003400000090B4
:10325000084B07B55A8B52B19B8B43B10021013B00
:10326000013A00909BB2084692B2FFF759FF03B0B3
:1032700000BD00BF1C4C00342DE9F043012497B081
:1032800034220021884D09A80CF0E0F80022082122
:1032900086482C6000F0DEFF00220221844800F006
:1032A000D9FF0A2000F064FB22460221804800F08A
:1032B000D1FF782000F05CFB1022002105A80CF063
:1032C000C5F86A467B4B03F108061446186859682E
:1032D000083303C4B3422246F7D118689B880426FA
:1032E000A38001234FF4806720604FF400746F487F
:1032F00004A90693049600F013FE6F4804A90497EE
:1033000000F00EFE04A96D48049400F009FE64204C
:1033100000F02EFB2146694800F096FF394604462E
:10332000654800F091FF003818BF0120003C18BF2D
:103330000124314644EA40045C4800F085FF00283F
:1033400040F09380E4B2022704230E26CDE904372F
:103350004FF0000803234FF48069544804A9CDE9D5
:103360000683089600F0DCFD534804A90896CDF8C2
:10337000109000F0D5FD4FF40073504804A9049359
:10338000089600F0CDFD16AB03EB440434F8582C3E
:103390004B4B47F216041A804FF41672494E4A4BB3
:1033A0004A49C6E902234A4B4A4AC6E904134A4B32
:1033B0009F201C801323C2E9053716232F60C2E922
:1033C000070340F29F4740F26E2340F23F5CC2E9A0
:1033D000097340F27A231046C2E90BC3C2F8108089
:1033E0003480C6F8049001F02FFA3A4801F0D2F97F
:1033F00044F24232338893423ED13848FFF73CFED4
:103400000427FF210024B3687268CDE90D710526F9
:103410004FF48061CDE90A24CDE91016CDE91242BE
:1034200009A922462B480C93149309940F94ADF8E4
:1034300054408DF8564001F0DFFA224628492548CD
:1034400001F013FB2046FFF75DFE03234FF6FF70EC
:103450002B60FFF7FDFE0122082114482F6000F0C9
:10346000F9FE2E6017B0BDE8F08344F00404072C89
:103470007FF468AF062466E747F28402934201D1E5
:103480001848BBE7A34201D11748B7E747F2180233
:103490009342B5D044F284329342F1D041F2180203
:1034A0009342ADD11148A9E7144C003400000256F4
:1034B0000010025610041170000402560018025643
:1034C0001A4C00341C4C0034140003008C0014000F
:1034D000A0000C00B8380034184C00344054890067
:1034E0000000009055A0FC0100400D0340A5AE0275
:1034F0002DE9F04F1D4615F0070618BF012685B0CF
:103500009DF8383006EBD5060293BDF83C30A2F1A9
:10351000200403936B0816FB03F6182D83460F4611
:10352000F6B2E4B242D006D80C2D0AD0102D39D014
:1035300005B0BDE8F08F202DFAD1234B03EBC41466
:1035400002E0224B05FB0434BA46A319DFF88C9045
:103550000193019B9C42EBD00AF1080814F8016B1F
:103560001FFA88F8330626D5039A51465846FFF7C6
:1035700055FEB9F81C200AF101011FFA81FA730007
:103580005245DEB2D4D9AAEB0702AA4219D1B9F842
:103590001A300BF101001FFA80FB5B45C8D9B84611
:1035A000C246D6E70A4B03EB0414CDE72422094BAD
:1035B00002FB0434C8E7029B002BDAD1064B1A88C1
:1035C000D3E7C245CED1EBE7F8111170C4541170A6
:1035D000D44E117078411170780000341C4C0034C6
:1035E0002DE9F04F1F4604460D464FF0000B85B005
:1035F000024496B20F9A0F449DF83830BDF84090BF
:10360000BFB202F1FF385FFA80FA18F8012FA2F179
:1036100020015E2902D905B0BDE8F08FB44222BF77
:10362000ED18ADB25446BD42F5D220462946CDE94B
:1036300000B90393FFF75CFF039B04EB5304A4B2B0
:10364000E3E700001E491F4AD1F88C3010B543F45F
:103650004063C1F88C30536B23F0E05343F0805348
:1036600053630022184BC3F88022C3F88422C3F8A6
:103670008822C3F88C22C3F89022C3F89422C3F89E
:1036800098220122114B8B60114BC3F8782AD3F892
:1036900078028C680F4803F5805304610069C3F811
:1036A0007822D1F888300C4A43F47003C1F888308E
:1036B000D2F8883043F47003C2F8883010BD00BFE0
:1036C00000ED00E000EF00E000E100E00004107019
:1036D000008002560080005600ED02E06E4BF0B50F
:1036E0001A6A02F44012B2F5001F00F0B98006D841
:1036F00062B99A6C694BC2F3C112D34003E0B2F5D0
:10370000401F09D00023664A1360F0BD5B6C9F0523
:1037100000F1A880634BF6E7D3F8C42002F04052D2
:10372000B2F1805F29D0B2F1005F35D0002A42D1DA
:10373000D3F880100E0101F0E04000F19A80D3F838
:103740008440D3F88820C1F30B2524F07F4407463A
:10375000B7F1005FC2F3C266C1F30550C2F3026263
:103760004ED000F28180002F3AD000274A4B5B6C8C
:103770009B0554BF4B4B4C4B38E0D3F890100D01D8
:1037800001F0E04075D4D3F89440C1F30B25D3F891
:10379000982024F07F44DAE7D3F8A0100C0101F060
:1037A000E04066D4D3F8A440C1F30B25D3F8A82099
:1037B00024F07F44CBE7D3F8B0100A0101F0E040D9
:1037C00057D4D3F8B440C1F30B25D3F8B82024F074
:1037D0007F44BCE702460646044605464FF00067B4
:1037E0002D4B996C2D4BC1F3C111CB404FB12A4ADF
:1037F000D2F8C420C2F307420132B3FBF2F382E7EE
:103800002A4B07EE104AB8EEC76A07EE105A07EEC9
:10381000903ADFED276AB8EEC77AF8EEE77AA6EEBF
:10382000267A67EE877A07EE100AB8EEC77AC7EEF7
:10383000876A07EE906AB8EEE77A07EE902AF8EE0C
:10384000E77A27EE277AC6EE877AFCEEE77A17EE5C
:10385000903ACCE70023D4E7144BC8E70023C6E72F
:10386000124B50E7104B4EE7B7F1405FF2D1114BCE
:10387000C7E7B0F1005FEFD009D80028AAD0002236
:103880004FF0006716461446154610466EE7B0F135
:10389000405FE3D1074BAAE7008002560090D003B7
:1038A0007C00003400093D000024F400006CDC02C0
:1038B000000080330080BB006DED81CF00B5FFF7C5
:1038C0000DFF054B5DF804EB18689FEC100A9FE8AC
:1038D0000E90FDEC81CF74477C00003438B50F4B5F
:1038E00005461A780AB9012038BD4FF47A73B3FB44
:1038F000F2F30B4A1068B0FBF3F000F095F80446C1
:103900000028F0D10F2DEED8024629464FF0FF30A7
:1039100000F05AF8034B20461D60E5E780000034B4
:103920007C0000348400003410B5032000F03AF825
:10393000FFF7D4FE0E20FFF7D1FF044618B9FDF7BC
:10394000C3FF204610BD0124FBE70000034A044BDF
:1039500011681B780B441360704700BF3C4C003467
:1039600080000034014B1868704700BF3C4C0034A5
:1039700038B50446FFF7F6FF0546631C1EBF044B2F
:103980001B78E418FFF7EEFF431BA342FAD338BDC0
:10399000800000344FF0E022136943F0020313610A
:1039A0007047000007490302CA6803F4E06322F489
:1039B000E0621204120C134343F0BF6343F400337C
:1039C000CB60704700ED00E0154B30B5DC68C4F308
:1039D0000224C4F10703251D042B28BF0423062D50
:1039E0004FF0FF3594BF0024033C05FA03F321EAAE
:1039F0000303A54022EA0502A340002843EA02038C
:103A0000ACBF00F16040074A4FEA0313DBB2ABBF23
:103A100000F5614000F00F0080F80033135430BD12
:103A200000ED00E014ED00E00138B0F1807F0BD232
:103A30004FF0E023F021054A586182F8231000205E
:103A4000072298611A6170470120704700ED00E07D
:103A500010B5044608B9012010BD437F03F0FF02F2
:103A600013B90277FDF74CFF022363772379E3B99B
:103A70002368134A5A619A6822F018029A606279A0
:103A80002368D2B94FF0FF321A619A68616922F453
:103A900018720A439A609A68A16922F4B0620A43D4
:103AA0009A60012300206377D6E72046D4E902120A
:103AB00000F008F80028E2D0CDE72269E4E700BF73
:103AC000B71DC104CB0730B50CD51E231F2421FA26
:103AD00003F5ED0708D5102A1AD0102A0BD872B1B9
:103AE000082A17D0012012E0013C03F1FF33EED188
:103AF000102AF2D1F6E7182AF4D1062BF2D8006882
:103B00004161836823F0180313438360002030BDB4
:103B1000072BF3E70F2BF1E7F0B50468059D666C02
:103B200045EA0345436806F040463543B3F5403F58
:103B30006564E2632FD1806801F07F4601F47F0362
:103B400001F47F42CDB203281AD8DFE800F0040266
:103B5000060E21F07F41A163F0BDD90C920AC90283
:103B600041EA421141EAD501F5E7DB0CD20A9B029A
:103B700043EA421343EAD503F10F43EAC131EAE7CE
:103B80001B0D120B1B0243EA021343EA1513360FF7
:103B900043EA0631DFE7B3F5802F0CBF6161E160D6
:103BA000DAE710B50446002836D090F8613003F00B
:103BB000FF021BB980F86020FDF7AEFE022384F8F7
:103BC00061302368E0691968626821F4E0210243EA
:103BD00021F040010A431A60596BA069A26821F4E0
:103BE0008371024321F001010A435A631A6CE168B0
:103BF0006FF30F020A431A64596BD4E904025205A9
:103C000042EA005221F440110A435A630020012382
:103C1000606684F8613010BD0120FCE773B590F850
:103C200060500446012D4FF002050FD0012680F8A8
:103C30006150069D80F860600095FFF76DFF0020E1
:103C4000226813683343136002B070BD2846FBE757
:103C5000002373B50193036804461A680D46D20722
:103C600006D5FFF77FFE064623685A68910712D5EE
:103C7000DA69596A0A43920606D5FFF773FE0646CB
:103C800023685A68D20637D512229A600123002091
:103C900084F8613019E05A680192019A12F0210FFC
:103CA00018D0019A960642BF626E42F00202626626
:103CB000019AD50742BF626E42F00102626621227C
:103CC0009A600423012084F86130002384F8603076
:103CD00002B070BD681CC8D0FFF744FE801BA8422C
:103CE00001D8002DC0D1636E032043F0200363662A
:103CF000032384F86130E8E75A680192019A12F0D0
:103D0000290F16D0019A160742BF626E42F00402D4
:103D10006266019A950642BF626E42F002026266D6
:103D2000019AD00742BF626E42F001026266292208
:103D3000C6E7691CA5D0FFF715FE801BA842D2D8A4
:103D4000002D9DD1CFE770477047036870B55E685E
:103D50000446F2071D6814D5E90512D51A6822F445
:103D600080721A60426E42F00102426601229A603D
:103D7000042380F86130002380F86030436A03B187
:103D80009847B20616D5AB0414D523681A6822F4F6
:103D900000521A6020229A60636E43F00203636649
:103DA000042384F86130002384F86030636A0BB127
:103DB00020469847300716D5290514D523681A6878
:103DC00022F400621A6008229A60636E43F00403D2
:103DD0006366042384F86130002384F86030636AEA
:103DE0000BB12046984772070BD56B0509D52368A0
:103DF00020461A6822F480621A6004229A60FFF753
:103E0000A2FFB00714D5A90512D523681A6822F4B9
:103E100000721A6002229A60636E6366012384F85E
:103E20006130002384F86030236A0BB12046984744
:103E3000F20613D5EB0411D5236820461A6822F444
:103E400080521A6010229A60636E6366012384F8C0
:103E50006130002384F86030FFF776FF70BD00000A
:103E6000F0B590F860300246012B4FF0020032D0DE
:103E700082F861001C20012300FB012082F86030E1
:103E8000836BD0E90B541B0543EA0443C46B2B43FB
:103E900043EA4453A5F10906446B012E9ABF04F08E
:103EA0007F40034343EA04631068A9B9446A19498F
:103EB000012E01EA040141EA0301936A4162836130
:103EC00003D8536B23F07F4383620123002082F8E1
:103ED000613082F86000F0BD0B2D01BF1C2505FB91
:103EE00001252D6C0C4F0CBF43EA85430B4FC56970
:103EF000012E25EA070543EA0503C3614FF01C03C1
:103F000003FB01218B6A98BF24F07F44036198BFB3
:103F10000462DAE7F0FFCC000F003FFF0F0033FF31
:103F20002DE9F04F00234FF00F0A6D4C0A6832FA6A
:103F300003F501D1BDE8F08F012505FA03F919EA6F
:103F4000020200F0B58003274E684FEA430806F0EE
:103F5000030507FA08FE6F1E012F6FEA0E0ED1F857
:103F600008C031D8876807EA0E0BCF6807FA08F750
:103F700047EA0B078760476827EA0909C6F3001775
:103F80009F4047EA09074760C7680CFA08FC07EA40
:103F90000E074CEA0707022DC7601AD14FEAD30C6F
:103FA00000EB8C0C03F00709DCF820704FEA89095C
:103FB0000AFA09FB27EA0B0B0F6907FA09F747EA28
:103FC0000B07CCF8207004E0032DDDD1BCF1010F0C
:103FD000DAD1076805FA08F507EA0E073D4316F43B
:103FE000403F056064D023F0030707F1AC4707F5B5
:103FF000143703F0030C3D6E4FEACC0C0AFA0CFEAA
:1040000025EA0E0E374DA84254D005F58065A8422A
:1040100052D005F58065A84250D005F58065A842CC
:104020004ED005F58065A8424CD005F58065A842C4
:104030004AD005F58065A84248D005F58065A842BC
:1040400046D005F5C055A84244D005F58065A84284
:1040500042D005F58065A84240D005F58065A842AC
:1040600014BF10250B2505FA0CF545EA0E053D6633
:10407000D743D4F8805016F4803F0CBF3D40154321
:10408000C4F88050D4F8845016F4003F0CBF3D4073
:104090001543C4F88450256816F4801F0CBF3D40BA
:1040A000154325606568B60254BF3D401543656001
:1040B00001333BE70025D6E70125D4E70225D2E707
:1040C0000325D0E70425CEE70525CCE70625CAE77A
:1040D0000725C8E70825C6E70925C4E70A25C2E77A
:1040E00000500256000002562DE9F04F00224FF01A
:1040F000010A4FF00F084FF0030B514C31FA02F355
:1041000001D1BDE8F08F0AFA02FC1CEA01067FD05B
:1041100022F0030505F1AC4505F5143502F003075F
:104120002B6EFF0008FA07F909EA030E454B984287
:1041300070D003F5806398426ED003F58063984297
:104140006CD003F5806398426AD003F5806398428F
:1041500068D003F58063984266D003F58063984287
:1041600064D003F58063984262D003F5C05398424F
:1041700060D003F5806398425ED003F58063984277
:104180005CD003F58063984214BF10230B23BB401F
:10419000734517D1D4F8803023EA0603C4F8803081
:1041A000D4F8843023EA0603C4F88430236823EA71
:1041B00006032360636823EA060363602B6E23EA29
:1041C00009032B66036856000BFA06F633430360B7
:1041D000D30800EB830302F007051F6AAD0008FA5D
:1041E00005F527EA05071F62876827EA0607876043
:1041F000476827EA0C074760C76827EA0607C760D1
:104200001E6C26EA05061E649E6C26EA05059D6462
:10421000013273E70023BAE70123B8E70223B6E7C8
:104220000323B4E70423B2E70523B0E70623AEE790
:104230000723ACE70823AAE70923A8E70A23A6E790
:10424000005002560000025600690840003818BFAE
:10425000012070470AB181617047816270474369EC
:1042600001EA030221EA030141EA02418161704748
:1042700010B540F201149443036B09D10B4340F293
:10428000022403639443436B06D10B43436310BD85
:10429000D40548BF8B43F2E7920548BF8B43F5E74F
:1042A0002DE9F04F342687B0DDF840C0046806FBE6
:1042B0000C06D6F848E0CDE90223756E0CF1010337
:1042C00004EB0323BEF1030FDD634CD8042634272F
:1042D00007FB0C00D4F80CC0D0F838B0E768D0F871
:1042E0003C800BF10109C7F30B47CCF30B4C4F4457
:1042F000C44447EA0C471F61476C026C0497E768A7
:10430000E4680592C4F30B0C541C049AC7F30B0722
:104310006444174444EA0744C26D5C61A8EB0B0493
:1043200004FB06F90192039A006E032A00FB06FCC7
:1043300009F1070A45D140F20D16019AB6455A63B4
:104340002AD040F20D26B64531D04AEA0C429A6393
:10435000DA6822F4807222F0010242F00102DA608F
:1043600007B0BDE8F08FAEF10407092F4FF001064A
:10437000ADD840F29B2906FA07F818EA090F07D1D1
:10438000022F07D0082FA2D19E6FC6F382469EE768
:1043900002269CE703269AE708F10702A2EB0B022C
:1043A00042EA004219649A646D08DD64CDE764084E
:1043B000029A4008073444EA004419645A649C6431
:1043C000F2E7039A3ABB019A571E4F445F6340F2EB
:1043D0000D17BE450AD040F20D27BE4510D04AEA5F
:1043E0000C429A63DA6842F48072B6E701394944B4
:1043F0001964073444EA00446D089C64DD64EEE708
:1044000064086643029A0139013A3144324419641E
:1044100040085A64EDE7DDE90427A2EB0708039A98
:10442000CCF5004C012A4AEA0C4C31D1019A08F132
:10443000FF3A09FB0A275F6340F20D17BE4506D01D
:1044400040F20D27BE450DD0C3F838C080E74FEAD3
:104450005802013A09FB02121A64C3F848C06D08F9
:10446000DD64F1E7640874434FEA5808400808F136
:10447000FF38C0F5004004FB08F87043029A073487
:104480004144424444EA004419645A649C64E6E7A7
:10449000019A571E09FB08775F6340F20D17BE456E
:1044A00006D040F20D27BE450DD0C3F838C099E7BD
:1044B0004FEA5808013909FB08111964C3F848C0CC
:1044C0006D08DD64F1E76408744340084FEA58085A
:1044D000C0F5004004FB08F87043029A0139013A24
:1044E00007344244414444EA004419645A649C64D9
:1044F000DA6C6FF30F02DA64E2E7000002684B1C2B
:1045000002EB0322342303FB0101086D91F86830AC
:1045100043EA006391F8690043EA002391F86A00D6
:1045200043EA00435362136A23F0FF031362CB6C28
:104530001362906A054B03409362906AD1E915318A
:104540000B4300F480310B4393627047F8F8FEFF91
:10455000342303FB01039A6CF0B5D41F042C23D839
:10456000164ADFF86CC0165D154A164B175D164AE1
:104570001B5D155D154A9B04125D1CF8044001F19A
:10458000010C01680720520202EB85323A4403EB2A
:10459000853301EB0C2102EB46122344C86103EB87
:1045A00045134A678B67F0BD062AFCD803680131C2
:1045B00003EB01210023CA614B67F3E74C591170EB
:1045C0004759117051591170425911703D5911706C
:1045D000385911702DE9F047089F06687C1C06EBDE
:1045E0000426F46804F4807EB46B04F0804834241C
:1045F00004FB0704D4F848C0BCF1030F12D804240C
:104600003425B8F1000F4FD1BEF1000F23D10324A0
:1046100005FB07050C60716BE965316C1160726C0C
:104620001A602BE0ACF10405092D4FF00104E7D826
:1046300040F29B2A04FA05F919EA0A0F07D1022D64
:1046400007D0082DDCD1B46FC4F38244D8E702242C
:10465000D6E70324D4E705FB0700D0E90E577D1BFE
:1046600004FB05F7716B0131C91BC16540F20D11E7
:104670008C4505D040F20D218C4506D0BDE8F08771
:10468000336C0133DB1B1360F8E7316C6D080131CB
:1046900004FB15111160726CD0E90E01091A013288
:1046A000490804FB1122BBE7BEF1000F38D14FF0DF
:1046B000010C05FB0705C1F800C0D5E90E10401A32
:1046C00000FB04FCD5E91017D6F834E0791A4F1E28
:1046D0000CFB17E740F20D1EEF65AF6C774519D064
:1046E00040F20D2C6745C9D14908400801394143C2
:1046F000376C04FB11711160D5E91012521A52087F
:10470000D5E90E51491B013A49084A43706C04FB34
:10471000120285E7336C490801390CFB1133B2E70B
:104720004FF0020C05FB0700C1F800C0D6F834E0DA
:10473000D0E90E51491BD0E91075EF1B0EF10105B0
:1047400040F20D1E01FB04FC07FB1C55C565856C82
:10475000754519D040F20D2C65458FD149087F0869
:104760007943356C013504FB11511160D0E90E52CB
:10477000521BD0E91005281A520840084243716CB8
:10478000013104FB12124BE7336C7F0801330CFB41
:10479000173378E738B50446002853D090F8A13095
:1047A00003F0FF021BB980F8A020FDF7C9F802232F
:1047B00084F8A13023689A6922F070429A61D4E9A2
:1047C00001200243E06899690243206902430A43D9
:1047D0009A61D4E9051242EA01429A60D4E90712CB
:1047E00042EA0142DA60D4E9091242EA01421A615E
:1047F000D4E90B1242EA01425A61DA6A94F83500B0
:1048000002F07F4294F83610DA62DD6A94F83420C0
:104810002A4342EA002242EA0142DA620422C3F851
:104820000821C3F808225A6E002042F044025A665A
:104830009A6942F001029A610123C4F8A40084F845
:10484000A13038BD0120FCE738B5044660B30368E9
:10485000D3F80C2122F00102C3F80C21D3F80C226A
:1048600022F00102C3F80C225A6A42F002025A6294
:10487000FFF778F8054623689B6C5B0704D4FFF7C5
:1048800071F8401B6428F6D922682046936923F00A
:1048900001039361FDF7E2F80020C4F8A40084F856
:1048A000A00084F8A10038BD0120FCE770477047E4
:1048B0007047F8B5036804469E6E5D6E310615D5E7
:1048C0002A0613D55A6E22F080025A668022DA66D2
:1048D000D0F8A43043F00403C0F8A430042380F8D7
:1048E000A130002380F8A030FFF7E0FF16F040076A
:1048F00017D06B0615D5236820465A6E22F0400269
:104900005A664022DA66D4F8A43043F00203C4F8B1
:10491000A430042384F8A130002384F8A030FFF7EA
:10492000C5FF700716D5690714D5236820465A6E4F
:1049300022F004025A660422DA66D4F8A43043F066
:104940000103C4F8A430002384F8A12084F8A03027
:10495000FFF7ACFFBFB16A0615D5236820465A6E33
:1049600022F040025A664022DA66D4F8A43043F0BE
:104970000203C4F8A430042384F8A130002384F88F
:10498000A030FFF793FFB3070ED5AF070CD5236810
:1049900020465A6E22F002025A660222DA6600238C
:1049A00084F8A030FFF784FFF00710D5E9070ED593
:1049B000236820465A6E22F001025A660122DA6606
:1049C000002384F8A12084F8A030FEF7E3F8320732
:1049D00011D52B070FD5236820465A6E22F0080206
:1049E0005A660822DA66012384F8A130002384F88D
:1049F000A030FFF75CFFF8BDF7B590F8A030064691
:104A0000012B0D4617464FF002002CD0342404FB36
:104A1000026486F8A10038340FCD0FC40FCD0FC447
:104A20000FCD0FC42B68394623603046FFF790FD49
:104A300039463046FFF762FD002234687B1C04EBE8
:104A40000324236B304623F008032363114603231A
:104A50000097FFF725FC05230020A360012386F8BB
:104A6000A00086F8A13003B0F0BDF0B5002690F8A4
:104A7000A03087B0012B04460F4615464FF00203C5
:104A8000CDE90366059620D080F8A13005A90092F3
:104A900004AB03AAFFF79EFD342303FB0543324614
:104AA000DF652046059B00953146FFF7F9FB05229F
:104AB0002368013503EB05239A600123304684F80F
:104AC000A13084F8A06007B0F0BD1846FBE70000F5
:104AD00090F8A0200346012A4FF0020012D01A6875
:104AE00083F8A100506E20F0010050660648016472
:104AF000516E002041F001015166012283F8A000AF
:104B000083F8A120704700BF0010005811F0200F5B
:104B100010B50D4B0DD01A6F01F0220102431A6738
:104B200022295A6F01D1024301E022EA00025A67AA
:104B300010BDC4431A6F01F0110122401A671129F8
:104B40005A6FF0D02240F2E700480256042829D8D4
:104B5000DFE800F0030B12192100134AD36B23F096
:104B6000807343EA0163D36370470F4AD36B23F02A
:104B7000007343EA4163F6E70B4AD36B23F080638B
:104B800043EA8163EFE7084A536B23F0807343EAFB
:104B9000016353637047044A936B23F0807343EAC5
:104BA00001639363704700BF00480256024AD36B0B
:104BB00043F48073D363704700480256024AD36BB4
:104BC00043F40073D363704700480256024A536BA4
:104BD00043F480735363704700480256024A936B54
:104BE00043F480739363704700480256024A536D42
:104BF00023F040035365704700800256024A536D0C
:104C000043F040035365704700800256024B5868DA
:104C1000C0F30010704700BF00800256024B586876
:104C2000C0F3C000704700BF00800256024B5868B6
:104C3000C0F38000704700BF00800256024B5868E6
:104C4000C0F34000704700BF00800256074930B5EE
:104C5000C4B2C0F304256358020EAA40C0F3074053
:104C600023EA0203A8400343635030BD4481025647
:104C7000B0F1005F08B51AD00AD870B9FFF7CEFFBF
:104C800048B1104B10489B6CC3F3C113D84003E0EC
:104C9000B0F1405F11D0002008BDFFF7C7FF00282A
:104CA000F9D0084B5B6C9B0509D40848F4E7FFF783
:104CB000ADFF0028EFD00648EEE70648ECE70648CF
:104CC000EAE700BF008002560090D00300093D00D3
:104CD000006CDC020080BB000024F40007EE102A08
:104CE00006EE103A07EE900AB8EEC66ADFED105AEB
:104CF000B8EEC77A06EE901AA6EE257AF8EEE77AB5
:104D000067EE877AB8EEE67A87EE876ADDED007A9D
:104D1000F8EEE77AC6EE276ADDED017AF8EEE77A7B
:104D200086EEA77AFCEEC77A17EE900A704700BFAE
:104D30000000803303682DE9F041190104462BD5AA
:104D40002A4BD0F88811D3F85C3113F4407336D174
:104D5000B1F5807F08D1FEF705FE41F288360546A1
:104D6000FFF76CFF002839D0D4F888311F4A03F4CC
:104D70004070B0F5407F08D1D2F85C1123F4407345
:104D800021F47C310B43C2F85C31D2F85C3123F45E
:104D900040730343C2F85C314FF00008D4E9005679
:104DA0006B0740D5D4F8B810104BCA1E042A32D86D
:104DB000DFE812F0CC062000A806BA06F60601F4D9
:104DC00040729A42C4D00A4BDA6A42F00102DA62B7
:104DD000DB6ADA07BCD44FF00108DFE7FEF7C2FD5B
:104DE000401BB042BCD94FF00308D7E70080025601
:104DF00000480256D3F8D420E06AA76A22F0435252
:104E000022F47C1201383A4342EA0042C3F8D4202B
:104E10001022C3F8402AC54AD2F85C3123F00703B8
:104E20000B43C2F85C31770219D5D4F8AC00C04B03
:104E3000984240F0C986BD4AE169D2F8CC30A769F2
:104E400023F0435323F47C1301393B4343EA0143EA
:104E5000C2F8CC300423C2F8403AFFF7F7FE300224
:104E600019D5D4F8B000B34B984240F0CB86AF4A86
:104E7000E169D2F8CC30A76923F0435323F47C13C3
:104E800001393B4343EA0143C2F8CC300423C2F862
:104E9000403AFFF7DBFEF10119D5D4F8B400A64B78
:104EA000984240F0CD86A14AE169D2F8CC30A7699A
:104EB00023F0435323F47C1301393B4343EA01437A
:104EC000C2F8CC300423C2F8403AFFF7BFFE2A05EF
:104ED0001ED5D4F8A810954A202940F0CF86D2F8E4
:104EE000CC30E069A76923F0435323F47C130138E5
:104EF0003B4343EA0043C2F8CC300423C2F8403AB3
:104F00008A4AD2F84C3123F030030B43C2F84C31BB
:104F10006B0019D5D4F82C01884B984240F0C88614
:104F2000824A616AD2F8D030276A23F0435323F4CF
:104F30007C1301393B4343EA0143C2F8D0300823D4
:104F4000C2F8403AFFF782FE002D19DAD4F830019A
:104F50007B4B984240F0CA86744A616AD2F8D030DE
:104F6000276A23F0435323F47C1301393B4343EA7C
:104F70000143C2F8D0300823C2F8403AFFF766FE7A
:104F8000EF0725D5D4F8BC206849202A40F0CC860C
:104F9000D1F8DC30E06BA76B23F0435323F47C1390
:104FA00001383B4343EA0043C1F8DC304023C1F8F9
:104FB000403A5E48D4F8C010D0F84431013923F4A7
:104FC0007F4323F07003134343EA0123C0F84431C5
:104FD000A8071ED5D4F8C410544A022940F0BE8652
:104FE000D2F8DC30E06BA76B23F0435323F47C133F
:104FF00001383B4343EA0043C2F8DC304023C2F8A7
:10500000403A4A4AD2F8443123F007030B43C2F82E
:105010004431290714D5454AD4F89410D2F8083100
:10502000D4F8900023F0435323F47C130139034355
:1050300043EA0143C2F808314FF40033C2F8403A62
:10504000EA0622D5D4F8C810384AB1F5001F40F05E
:105050009F86D2F80431D4F88C00D4F8887023F0FD
:10506000435323F47C1301383B4343EA0043C2F823
:1050700004314FF48033C2F8403A2C4AD2F844311C
:1050800023F440130B43C2F84431AB0620D5D4F8C7
:10509000CC10264AB1F5005F40F08286D2F8F0309D
:1050A000606E276E23F0435323F47C1301383B4397
:1050B00043EA0043C2F8F0304FF40063C2F8403ACC
:1050C0001A4AD2F8483123F440530B43C2F848310E
:1050D0006F0609D5154AD4F8D010D2F8483123F418
:1050E000E0230B43C2F84831280609D50F4AD4F80B
:1050F000D410D2F8483123F480130B43C2F848315E
:10510000E90509D5094AD4F8D810D2F8483123F076
:1051100080730B43C2F84831AA0532D5D4F8DC10AD
:10512000024A022940F044860CE000BF008002568B
:105130001400020314040203140802031C000203F7
:105140001C040203D2F8F430E06EA76E23F0435340
:1051500023F47C1301383B4343EA0043C2F8F430A4
:105160004FF48053C2F8403AC948D4F8E020D0F850
:105170004831013A23F0F3030B4343EA0213C0F82A
:1051800048316B0521D5D4F8E410C14A022940F01A
:105190001686D2F80C31D4F89C00D4F8987023F01D
:1051A000435323F47C1301383B4343EA0043C2F8E2
:1051B0000C314FF48023C2F8403AB54AD2F84C3152
:1051C00023F003030B43C2F84C31EF041AD5D4F893
:1051D000E800B04B984240F0F985AD4A616DD2F8D5
:1051E000E830276D23F0435323F47C1301393B430C
:1051F00043EA0143C2F8E8304FF40073C2F8403A82
:10520000FFF724FDA8041AD5D4F8EC00A24B98426D
:1052100040F0FB859E4A616DD2F8E830276D23F09F
:10522000435323F47C1301393B4343EA0143C2F85F
:10523000E8304FF40073C2F8403AFFF707FD690405
:105240001AD5D4F8F000954B984240F0FD85904A6D
:10525000616DD2F8E830276D23F0435323F47C13BB
:1052600001393B4343EA0143C2F8E8304FF400738D
:10527000C2F8403AFFF7EAFC2A041AD5D4F8F40041
:10528000874B984240F0FF85814A616DD2F8E83043
:10529000276D23F0435323F47C1301393B4343EA46
:1052A0000143C2F8E8304FF40073C2F8403AFFF708
:1052B000CDFCEB031AD5D4F8F8007A4B984240F0B5
:1052C0002786734A616DD2F8E830276D23F0435387
:1052D00023F47C1301393B4343EA0143C2F8E8302D
:1052E0004FF40073C2F8403AFFF7B0FCAF031AD591
:1052F000D4F8FC006C4B984240F02986644A616DFA
:10530000D2F8E830276D23F0435323F47C1301399E
:105310003B4343EA0143C2F8E8304FF40073C2F85C
:10532000403AFFF793FC68031AD5D4F800015F4BAD
:10533000984240F02B86564AE16FD2F8FC30A76FB6
:1053400023F0435323F47C1301393B4343EA0143E5
:10535000C2F8FC304FF48043C2F8403AFFF776FCC5
:1053600029031AD5D4F80401514B984240F017860E
:10537000474AE16FD2F8FC30A76F23F0435323F480
:105380007C1301393B4343EA0143C2F8FC304FF43C
:105390008043C2F8403AFFF759FCEA021AD5D4F824
:1053A0000801444B984240F00386394AE16FD2F835
:1053B000FC30A76F23F0435323F47C1301393B43A4
:1053C00043EA0143C2F8FC304FF48043C2F8403A4C
:1053D000FFF73CFCAB021AD5D4F80C01364B9842CF
:1053E00040F0EF852A4AE16FD2F8FC30A76F23F036
:1053F000435323F47C1301393B4343EA0143C2F88E
:10540000FC304FF48043C2F8403AFFF71FFC6F02B4
:105410001AD5D4F81001294B984240F0DB851C4A7C
:10542000E16FD2F8FC30A76F23F0435323F47C13D1
:1054300001393B4343EA0143C2F8FC304FF4804357
:10544000C2F8403AFFF702FC280239D5D4F814110B
:105450000F4AB1F5007F40F0C685D2F8E430E06C29
:10546000A76C23F0435323F47C1301383B4343EAF6
:105470000043C2F8E4304FF48073C2F8403A044A63
:10548000D2F8783123F4E0630B43C2F8783117E0A7
:10549000008002560C0002070C0402070C080207E9
:1054A0000C0C02070C1002070C1402072C08020750
:1054B0002C0C02072C1002072C1402072C180207D0
:1054C000E90122D5D4F81811C94AB1F1007F40F0A2
:1054D000A785D2F80031D4F88400D4F8807023F086
:1054E000435323F47C1301383B4343EA0043C2F89F
:1054F00000314FF40043C2F8403ABD4AD2F850316F
:1055000023F040730B43C2F85031AA011FD5D4F8E1
:105510001C11B74AB1F5003F40F08A85D2F8DC3063
:10552000E06BA76B23F0435323F47C1301383B4318
:1055300043EA0043C2F8DC304023C2F8403AAC4AA8
:10554000D2F8543123F4E0230B43C2F854316B01F9
:1055500021D5D4F82011A64A202940F08585D2F81B
:105560001031D4F8A400D4F8A07023F0435323F4EE
:105570007C1301383B4343EA0043C2F810314FF437
:105580000023C2F8403A9A4AD2F85C3123F0300343
:105590000B43C2F85C31EF0019D5D4F82401954BC8
:1055A000984240F06885924AE16BD2F8DC30A76BF4
:1055B00023F0435323F47C1301393B4343EA014373
:1055C000C2F8DC304023C2F8403AFFF73FFBAD00A1
:1055D00019D5D4F82801884B984240F06A85844A4E
:1055E000E16BD2F8DC30A56B23F0435323F47C133A
:1055F00001392B4343EA0143C2F8DC304023C2F8AF
:10560000403AFFF723FBF0071ED5D4F84C11784A37
:10561000022940F06C85D2F8DC30E06BA56B23F0FA
:10562000435323F47C1301382B4343EA0043C2F86D
:10563000DC304023C2F8403A6D4AD2F8643123F09E
:1056400007030B43C2F86431B10719D5D4F834010C
:105650006A4B984240F06585654A616CD2F8E0304B
:10566000256C23F0435323F47C1301392B4343EA85
:105670000143C2F8E0308023C2F8403AFFF7E6FA6F
:10568000720719D5D4F838015D4B984240F068850F
:10569000574A616CD2F8E030256C23F0435323F471
:1056A0007C1301392B4343EA0143C2F8E0308023E5
:1056B000C2F8403AFFF7CAFA330719D5D4F83C01CB
:1056C000504B984240F06B85494A616CD2F8E0300B
:1056D000256C23F0435323F47C1301392B4343EA15
:1056E0000143C2F8E0308023C2F8403AFFF7AEFA37
:1056F000F7061AD5D4F84001434B984240F09685FE
:105700003B4AE16CD2F8E430A56C23F0435323F418
:105710007C1301392B4343EA0143C2F8E4304FF4D0
:105720008073C2F8403AFFF791FAB5061AD5D4F85B
:105730004401364B984240F098852D4AE16CD2F8EE
:10574000E430A56C23F0435323F47C1301392B433D
:1057500043EA0143C2F8E4304FF48073C2F8403AA0
:10576000FFF774FA700619D5D4F84801284B98420F
:1057700040F09A851E4A616CD2F8E030256C23F027
:10578000435323F47C1301392B4343EA0143C2F80A
:10579000E0308023C2F8403AFFF758FAF1051AD5F5
:1057A000D4F850011B4B984240F09D85104AE16CA3
:1057B000D2F8E430A56C23F0435323F47C13013971
:1057C0002B4343EA0143C2F8E4304FF48073C2F83C
:1057D000403AFFF73BFAB20531D5D4F854010E4BED
:1057E000984240F09F85024AE16CD2F8E43015E01F
:1057F0000080025618140207181802072004020736
:1058000020080207200C02072010020720140207BC
:10581000201802073000020730040207A56C23F0AD
:10582000435323F47C1301392B4343EA0143C2F869
:10583000E4304FF48073C2F8403AFFF707FA73057B
:105840001AD5D4F85801CB4B984240F08A85CA4A01
:10585000E16CD2F8E430A56C23F0435323F47C13BD
:1058600001392B4343EA0143C2F8E4304FF480731B
:10587000C2F8403AFFF7EAF937051AD5D4F85C01C7
:10588000BE4B984240F08C85BB4AE16CD2F8E430C4
:10589000A56C23F0435323F47C1301392B4343EAD3
:1058A0000143C2F8E4304FF48073C2F8403AFFF786
:1058B000CDF9F5041AD5D4F86001B14B984240F007
:1058C0008E85AD4AE16CD2F8E430A56C23F04353E9
:1058D00023F47C1301392B4343EA0143C2F8E4303B
:1058E0004FF48073C2F8403AFFF7B0F9B0041AD50C
:1058F000D4F86401A34B984240F090859E4AE16C35
:10590000D2F8E430A56C23F0435323F47C1301391F
:105910002B4343EA0143C2F8E4304FF48073C2F8EA
:10592000403AFFF793F971041AD5D4F86801964B01
:10593000984240F09285904AE16CD2F8E430A56C30
:1059400023F0435323F47C1301392B4343EA0143EF
:10595000C2F8E4304FF48073C2F8403AFFF776F9AA
:1059600032041AD5D4F86C01884B984240F09485E3
:10597000814AE16CD2F8E430A56C23F0435323F460
:105980007C1301392B4343EA0143C2F8E4304FF45E
:105990008073C2F8403AFFF759F9F3031AD5D4F8E7
:1059A00070017B4B984240F09685734AE16CD2F8C7
:1059B000E430A56C23F0435323F47C1301392B43CB
:1059C00043EA0143C2F8E4304FF48073C2F8403A2E
:1059D000FFF73CF9B7031AD5D4F874016D4B984220
:1059E00040F0CA85644AE16CD2F8E430A56C23F03B
:1059F000435323F47C1301392B4343EA0143C2F898
:105A0000E4304FF48073C2F8403AFFF71FF9750392
:105A100023D5D4F87801604B984240F0CC85564AA3
:105A2000E16FD2F8FC30A56F23F0435323F47C13CD
:105A300001392B4343EA0143C2F8FC304FF4804361
:105A4000C2F8403A20F00040FFF700F9D4F878316E
:105A5000002B80F2B985FFF7D1F8F00223D5D4F8F6
:105A600080014E4B984240F0B385434AE16FD2F833
:105A7000FC30A56F23F0435323F47C1301392B43EF
:105A800043EA0143C2F8FC304FF48043C2F8403A85
:105A900020F00040FFF7DAF8D4F88031002B80F2D4
:105AA000A085FFF7ABF831030CD5D4F87C0120F0CA
:105AB0000040FFF7CBF8D4F87C31002B80F29585BD
:105AC000FFF79CF8B2020CD5D4F8840120F0004016
:105AD000FFF7BCF8D4F88431002B80F28A85FFF7F9
:105AE0008DF8330608D5244AD4F88C11536A23F074
:105AF000407343EA01635362B8F1000018BF01200C
:105B0000BDE8F081D3F8E820606D276D22F04352A4
:105B100022F47C1201383A4342EA0042C3F8E820FA
:105B20004FF40072FFF775B9D3F8FC20E06FA76F50
:105B300022F0435222F47C1201383A4342EA0042F6
:105B4000C3F8FC204FF48042FFF763B9D3F80C216F
:105B5000D4F89C00D4F8987022F0435222F47C12BE
:105B600001383A4342EA0042C3F80C214FF4802244
:105B7000FFF74FB93008020700800256300C0207C9
:105B8000301002073014020730180207301C0207D9
:105B90003400020734040207140C02031414020335
:105BA000D3F81021D4F8A400D4F8A07022F0435206
:105BB00022F47C1201383A4342EA0042C3F8102131
:105BC0004FF40022FFF725B9BE4B984211D1BE4ACF
:105BD000616AD2F8D030276A23F0435323F47C1350
:105BE00001393B4343EA0143C2F8D0300823FFF7B1
:105BF00032B9B64B984202BF4022B34BC3F8482A91
:105C0000FFF72BB9B24B984211D1AF4A616AD2F873
:105C1000D030276A23F0435323F47C1301393B43EC
:105C200043EA0143C2F8D0300823FFF730B9A94B4B
:105C3000984202BF4022A44BC3F8482AFFF729B973
:105C4000A54B984211D1A04A616AD2F8D030276A98
:105C500023F0435323F47C1301393B4343EA0143CC
:105C6000C2F8D0300823FFF72EB99C4B984202BFF0
:105C70004022954BC3F8482AFFF727B9302910D1A5
:105C8000D2F8D030606A276A23F0435323F47C13A0
:105C900001383B4343EA0043C2F8D0300823FFF702
:105CA0002DB9102904BF4023C2F8483AFFF728B99C
:105CB0008B4B984211D1844AE16AD2F8D430A76A5A
:105CC00023F0435323F47C1301393B4343EA01435C
:105CD000C2F8D4301023FFF733B9824B984202BF89
:105CE0004022794BC3F8482AFFF72CB97E4B9842E3
:105CF00011D1754AE16AD2F8D430A76A23F0435330
:105D000023F47C1301393B4343EA0143C2F8D43006
:105D10001023FFF731B9754B984202BF40226A4BFE
:105D2000C3F8482AFFF72AB9302A10D1D1F8E03059
:105D3000606C276C23F0435323F47C1301383B43FE
:105D400043EA0043C1F8E0308023FFF730B9102A5E
:105D500004BF4023C1F8483AFFF72BB9032910D1FB
:105D6000D2F8E030606C276C23F0435323F47C13AB
:105D700001383B4343EA0043C2F8E0308023FFF799
:105D80003EB9012904BF4023C2F8483AFFF739B9A8
:105D9000B1F5801F04BF4023C2F8483AFFF76DB940
:105DA000B1F5805F04BF4023C2F8483AFFF788B9D5
:105DB000012904BF4023C2F8483AFFF7D5B90129A9
:105DC00004BF4023C2F8483AFFF7F7B9484B98425E
:105DD00012D13D4AE16FD2F8FC30A76F23F0435354
:105DE00023F47C1301393B4343EA0143C2F8FC30FE
:105DF0004FF48043FFF702BA3E4B984202BF402265
:105E0000314BC3F8482AFFF7FBB93B4B984212D1FC
:105E10002D4AE16FD2F8FC30A76F23F0435323F4EF
:105E20007C1301393B4343EA0143C2F8FC304FF491
:105E30008043FFF700BA314B984202BF4022224B09
:105E4000C3F8482AFFF7F9B92D4B984212D11E4AE0
:105E5000E16FD2F8FC30A76F23F0435323F47C1397
:105E600001393B4343EA0143C2F8FC304FF480431D
:105E7000FFF7FEB9234B984202BF4022124BC3F8F2
:105E8000482AFFF7F7B9204B984212D10E4AE16F2A
:105E9000D2F8FC30A76F23F0435323F47C1301396D
:105EA0003B4343EA0143C2F8FC304FF48043FFF721
:105EB000FCB9164B984202BF4022034BC3F8482A54
:105EC000FFF7F5B914000303008002561400010324
:105ED0001404030314040103140803031408010346
